:1000000045C0000061C000005FC000005DC000008E
:100010005BC0000059C0000057C0000055C0000080
:1000200053C0000051C000004FC000004DC0000090
:100030004BC0000051C5000047C0000045C0000093
:1000400043C0000041C000003FC000003DC00000B0
:100050003BC0000039C0000037C0000035C00000C0
:1000600033C0000031C000002FC000002DC00000D0
:100070002BC0000029C0000027C0000025C00000E0
:1000800023C0000021C000001FC0000011241FBEBB
:10009000CFEFD0E4DEBFCDBF11E0A0E0B1E0E6ECF1
:1000A000F1E100E00BBF02C007900D92A033B10751
:1000B000D9F727E0A0E3B1E001C01D92A437B20751
:1000C000E1F77CD30C94E1089BCFCF93DF93EC0155
:1000D00060D640913001509131019E01240F351FAF
:1000E0002C3D85E0380758F44217530758F4EA01CD
:1000F000CE5CDE4F309331012093300105C0C0E06B
:10010000D0E002C0C0E0D0E00BD78C2F9D2FDF9154
:10011000CF9108950895FC010396928381832FEF78
:100120003FEF348323839683858390878783108270
:100130000895FC01118610860895CF93DF93FC018A
:10014000DB0121813281E9018A819B8113969C9395
:100150008E9312978181928115969C938E9314971A
:100160008A819B81EC017D836C83E9017B836A83B7
:10017000728361831996FC93EE93189780818F5F49
:100180008083DF91CF910895CF93DF93EB01488176
:1001900059814F3F2FEF520731F4DC011796ED9153
:1001A000FC91189717C0FC013396DC0115962D9130
:1001B0003C911697D9012D913C914217530750F06D
:1001C0000280F381E02DA281B3812D913C914217F1
:1001D0005307B0F7A281B381BB83AA831596DC9342
:1001E000CE931497FD83EC83D383C283998788874A
:1001F000FC0120812F5F2083DF91CF910895FC01C6
:10020000A281B3818481958115969C938E931497D6
:10021000A481B5818281938113969C938E931297CA
:10022000A085B18511968D919C9112978E179F078D
:1002300031F48481958112969C938E931197118647
:1002400010868C9181508C930895813081F0E1EC7F
:10025000F0E0808188618083E2ECF0E0808186605C
:10026000808383E38093C4001092C5000895E9EC75
:10027000F0E0808188618083EAECF0E08081866034
:10028000808383E38093CC001092CD000895813069
:1002900021F08091C000807208958091C800807222
:1002A0000895813021F08091C0008074089580917C
:1002B000C80080740895813021F08091C00080785A
:1002C00008958091C80080780895613041F0E0EC95
:1002D000F0E0908195FFFDCF8093C6000895E8EC93
:1002E000F0E0908195FFFDCF8093CE00089581309E
:1002F00041F0E0ECF0E080818823ECF78091C600CB
:100300000895E8ECF0E080818823ECF78091CE003E
:1003100008958530D9F058F4823091F018F4813086
:1003200069F41EC0833071F0843041F40DC0873011
:1003300089F070F0883081F0893081F087E7089586
:1003400083EB089586EB089584ED089586EE089575
:1003500087EE089584E3089587EF089586EF089562
:1003600084E10895FC0187E090E0B8E070E0A0E24D
:10037000413099F4B08350819B01082E02C035951D
:1003800027950A94E2F721703327252B20832081BB
:1003900024602083019760F713C0A08350819B01E4
:1003A000082E02C0359527950A94E2F7217033276D
:1003B000252B20832081246020830197C8F604C068
:1003C00080818260808303C080818061808310820D
:1003D000089580916C07882319F0813079F40BC05F
:1003E00080E069DF882321F081E080936C0708C0FA
:1003F00010926C07089510926C070895813029F5CA
:1004000080E075DF809370079DEC899F912D11240A
:1004100096959695969590936A07292F220F322FDD
:10042000330F330F230F821B80936B07892F71DFEC
:1004300041E0682F85E290E095DF80916B0769DFEE
:1004400042E0682F85E290E08DCF089510926C070E
:1004500087E080936A0782E080936B0787E059DF2B
:1004600041E0682F85E290E07DDF80916B0751DFEE
:1004700042E0682F85E290E075DF80E0E6DEA9DFEC
:100480008AE590E010D6FBCF80917307813019F098
:10049000823069F406C0809172078F5F8093720783
:1004A00018C08091720781508093720721C08130FB
:1004B00081F018F0823051F51BC0009904C081E032
:1004C000809373070895019921C082E08093730798
:1004D0000895009904C081E08093730708950199FD
:1004E00004C082E080937307089510927307089503
:1004F000009904C081E0809373070895019904C0B6
:1005000082E080937307089510927307089588E43A
:1005100080937207809370071092730741E068E43C
:1005200088E290E01FDFB0DF41E06091720788E26F
:1005300090E018DF8AEF90E0B6D5F5CF8091710793
:10054000813021F460E080916D07BFDE80917107FA
:10055000882319F08130C1F40FC080E098DE882331
:1005600041F080916907882321F081E08093710731
:10057000089510927107089580E093DE8823E1F3D7
:1005800010927107109269070895109271071092E6
:10059000690780E05ADED2DF8CE291E084D5FBCFA0
:1005A00080916807823001F130F4882351F0813066
:1005B00009F048C00DC0833041F1843009F042C0D9
:1005C00031C010926F0710926E0710926D073AC0FB
:1005D00081E080936D0780936907129A42E06EE094
:1005E00088E290E0BFDE2EC080916E0790916F0789
:1005F000449709F057C08091720781508093720729
:1006000010926F0710926E071DC083E080936D07F4
:1006100081E080936907139A42E066E388E290E004
:10062000A1DE10C080916E0790916F07449709F08A
:100630005DC0809172078F5F8093720710926F0781
:1006400010926E0780916807823061F130F4882340
:1006500059F0813009F06AC021C0833009F442C0EA
:10066000843009F063C042C08091720790E020910D
:10067000700730E0A9014E5F5F4F8417950724F0A3
:1006800081E08093680708952250310928173907BF
:100690000CF44CC083E080936807089582E0809357
:1006A000680708959091720780917007891750F438
:1006B00080916E0790916F07019690936F078093DA
:1006C0006E07089582E080936D0781E0809369074B
:1006D0001092680782B1837082B942E066E088E2D6
:1006E00090E040CE84E0809368070895909172076F
:1006F00080917007981750F480916E0790916F0762
:10070000019690936F0780936E07089584E080931D
:100710006D0781E0809369071092680782B183704A
:1007200082B942E066E088E290E01CCE0895109223
:10073000680710926F0710926E0732DF84EF91E026
:10074000B2D4FBCFAF92BF92CF92DF92EF92FF92E3
:100750000F93CF93A12CB12CC12CD12CE12CF12CD7
:10076000082F20E030E045E550E068E071E086E2E7
:1007700092E0E9D120E030E045E550E060E171E051
:1007800085EC92E0E0D120E030E045E550E069E121
:1007900071E087E892E0D7D120E030E045E550E015
:1007A00062E271E087E993E0CED1CF910F91FF90A3
:1007B000EF90DF90CF90BF90AF9008958CEF81B90C
:1007C00083E082B98FEF84B915B887B918B881E092
:1007D000B9DFB6D280E090E0089531E1FC013083CA
:1007E000319722E22083FC013297A3E3A083FC012E
:1007F00033976083FC0134977083FC013597108236
:10080000FC01369760E86083FC0137971082FC0199
:10081000389762E06083FC01399763E06083FC01F4
:100820003A9764E06083FC013B9765E06083FC01DC
:100830003C9766E06083FC013D9767E06083FC01C4
:100840003E9768E06083FC013F9769E06083FC01AC
:10085000709760E16083FC0171973083FC017297AF
:1008600032E13083FC01739733E13083FC017497EC
:1008700034E13083FC01759735E13083FC017697D4
:1008800036E13083FC01779737E13083FC017897BC
:1008900038E13083FC01799739E13083FC017A97A4
:1008A00030E23083FC017B9731E23083FC017C979E
:1008B0002083FC017D9723E22083FC017E97408307
:1008C000FC017F975083FC01B09726E22083FC0156
:1008D000B19727E22083FC01B29728E22083FC0134
:1008E000B39729E22083FC01B49720E32083FC0125
:1008F000B59721E320839C0126523109822F932F43
:100900000895109289008CE7809388008BE0809393
:100910008100EFE6F0E0808182608083A0911C0777
:10092000B0911D07CD91CDBFDD91DEBFFF91EF915D
:10093000DF91CF91BF91AF919F918F917F916F91F7
:100940005F914F913F912F911F910F91FF90EF90E9
:10095000DF90CF90BF90AF909F908F907F906F90DF
:100960005F904F903F902F901F900F900FBE0F9071
:10097000089581E008950F920FB6F8940F921F9298
:1009800011242F923F924F925F926F927F928F929B
:100990009F92AF92BF92CF92DF92EF92FF920F930E
:1009A0001F932F933F934F935F936F937F938F93F7
:1009B0009F93AF93BF93CF93DF93EF93FF93A09158
:1009C0001C07B0911D070DB60D920EB60D9286D381
:1009D000A0911C07B0911D07CD91CDBFDD91DEBF69
:1009E000FF91EF91DF91CF91BF91AF919F918F9147
:1009F0007F916F915F914F913F912F911F910F9137
:100A0000FF90EF90DF90CF90BF90AF909F908F902E
:100A10007F906F905F904F903F902F901F900F901E
:100A20000FBE0F9008950F920FB6F8940F921F9279
:100A300011242F923F924F925F926F927F928F92EA
:100A40009F92AF92BF92CF92DF92EF92FF920F935D
:100A50001F932F933F934F935F936F937F938F9346
:100A60009F93AF93BF93CF93DF93EF93FF93A091A7
:100A70001C07B0911D070DB60D920EB60D928FD1C9
:100A80002DD3A0911C07B0911D07CD91CDBFDD9155
:100A9000DEBFFF91EF91DF91CF91BF91AF919F9119
:100AA0008F917F916F915F914F913F912F911F9106
:100AB0000F91FF90EF90DF90CF90BF90AF909F90FD
:100AC0008F907F906F905F904F903F902F901F90EE
:100AD0000F900FBE0F900895A6DF1895CF93DF9368
:100AE000EC01E0911C07F0911D07938382838091B4
:100AF000140790911507C817D90760F460911C0777
:100B000070911D0780911807909119076E5F7F4FB4
:100B10003BDB16C060911C0770911D0780911A077E
:100B200090911B076E5F7F4F2FDB809106019091A4
:100B30000701C817D90720F4D0930701C093060115
:100B4000DF91CF9108954F925F926F927F928F9233
:100B50009F92AF92BF92CF92DF92EF92FF920F934C
:100B60001F93CF93DF934C013B015A01290181E28E
:100B700090E0ABDAEC01009709F4D0C0C114D104C5
:100B800009F0C9C0C501A1DA6C01988F8F8B00975D
:100B900019F4CE01BFDAC2C0A50165EA70E0C60152
:100BA000FAD281E0A81AB1088F89988DA80EB91ED3
:100BB00048E050E0B301CE014996F4D218A2102FBC
:100BC000043008F013E01E8B6E01E2E0CE0ED11C63
:100BD000C601AFDACE010C96ACDAD987C88784E0BB
:100BE00090E0811B91099D878C87DB8BCA8BA201CA
:100BF000B401C501F2DD99838883E114F10419F091
:100C0000F701D183C0830FB6F8940F928091160735
:100C10008F5F8093160780911C0790911D07892B89
:100C2000B9F5D0931D07C0931C078091160781303A
:100C300009F03DC0E12CF12CC701880F991F880FE6
:100C4000991F880F991F8E0D9F1D805E984F63DA44
:100C5000FFEFEF1AFF0A84E0E816F10469F784E475
:100C600097E059DA8DE497E056DA86E597E053DAB3
:100C70008FE597E050DA84E497E090931B07809328
:100C80001A078DE497E090931907809318070FC017
:100C90008091120781110BC0E0911C07F0911D0794
:100CA0008689081720F0D0931D07C0931C078E89F2
:100CB00090911E07981710F480931E0790911F07BC
:100CC0009F5F90931F0790911307981710F48093DC
:100CD000130790E09C01220F331F220F331F220FB6
:100CE000331F820F931FB601805E984F26DA0F9054
:100CF0000FBE80911207882351F0E0911C07F091FC
:100D00001D078689801728F436DE81E008C081E05F
:100D100006C081E004C0D88ECF8A3ECF8FEFDF912E
:100D2000CF911F910F91FF90EF90DF90CF90BF90E8
:100D3000AF909F908F907F906F905F904F900895AD
:100D4000AF92BF92CF92DF92EF92FF920F93A12CBE
:100D5000B12CC12CD12CE12CF12C00E020E030E0B2
:100D600045E550E06AE271E089E198E0ECDE81302F
:100D700041F4F8948093120710921507109214070B
:100D8000C0DD0F91FF90EF90DF90CF90BF90AF90BC
:100D90000895809111078F5F8093110708950F9335
:100DA0001F93CF93DF93809111078111AFC0809182
:100DB00014079091150701969093150780931407D7
:100DC0008091140790911507892B99F580911A0746
:100DD00090911B07209118073091190730931B073A
:100DE00020931A07909319078093180780910E0794
:100DF0008F5F80930E07E0911A07F0911B078081A7
:100E0000811107C08FEF9FEF909307018093060138
:100E100010C0E0911A07F0911B070580F681E02DC4
:100E20000680F781E02D8281938190930701809362
:100E300006012091140730911507809106019091C9
:100E400007012817390708F466C0E0911A07F091E6
:100E50001B078081882399F0E0911A07F0911B0706
:100E60000580F681E02DC681D7818A819B81209102
:100E700014073091150728173907F8F419C08FEFB8
:100E80009FEF909307018093060145C0E0911A07F8
:100E9000F0911B070580F681E02DC681D7818A81FC
:100EA0009B8120911407309115072817390728F4E2
:100EB00090930701809306012EC08E010E5F1F4F95
:100EC000C8019DD98C899D89892B19F0CE010C967A
:100ED00096D98E8990911307981710F48093130771
:100EE00090E09C01220F331F220F331F220F331F6C
:100EF000820F931FB801805E984F1FD9E0911A07A7
:100F0000F0911B0780818111C1CFB9CF809110076B
:100F10008F5F80931007DF91CF911F910F910895FC
:100F2000AF92BF92CF92DF92EF92FF920F931F93F7
:100F3000CF93DF930FB6F8940F92809111078150F1
:100F40008093110780911107811163C0809116076A
:100F500081112DC061C0D601ED91FC91C681D78170
:100F6000CE010C964CD98E010E5F1F4FC80147D998
:100F70008E8990911307981710F48093130790E0CF
:100F80009C01220F331F220F331F220F331F820FAA
:100F9000931FB801805E984FD0D8E0911C07F09164
:100FA0001D079E898689981788F0BA2C0FC0B12C2E
:100FB0000F2EF6E5EF2EF7E0FF2EF02D0F2EFBE5BE
:100FC000CF2EF7E0DF2EF02DAA24A394F701808125
:100FD0008111C1CF80911007882379F0809110078B
:100FE000882391F0DCDE80911007815080931007F8
:100FF000809110078111F6CF07C0F1E0BF1621F0F4
:1010000080910F07813039F410920F07B4DC81E032
:1010100003C080E001C080E00F900FBEDF91CF9150
:101020001F910F91FF90EF90DF90CF90BF90AF9006
:1010300008950F2EFFE5EF2EF7E0FF2EF02D0F2E77
:10104000F4E6CF2EF7E0DF2EF02DC0E2D7E080915E
:101050001707882319F19DDED7011C9161DF112349
:10106000E9F00FB6F8940F92D601ED91FC9106814C
:101070001781C8010296C3D88091160781508093CA
:101080001607809117078150809317070F900FBEA6
:10109000F8018789908D3ED8C8013CD8888182307C
:1010A000B0F269DCD4CFCF93DF93EC01009791F0DD
:1010B00070DE8091140790911507C80FD91F809199
:1010C0001C0790911D0702969AD8CE0107DD28DFF4
:1010D000811101C050DCDF91CF91089580911107FB
:1010E000811113C08091130790E0FC01EE0FFF1FE8
:1010F000EE0FFF1FEE0FFF1F8E0F9F1FFC01E05E24
:10110000F84F8081882329F01BC081E080930F076E
:1011100008958091130781508093130780911307DE
:1011200090E0FC01EE0FFF1FEE0FFF1FEE0FFF1F01
:101130008E0F9F1FFC01E05EF84F8081882349F3EA
:10114000E0911307F0E0CF01880F991F880F991FD6
:10115000880F991FE80FF91FE05EF84FA181B28157
:1011600012960D90BC91A02DB283A183CF0103965E
:10117000A817B90731F412968D919C911397928319
:1011800081830180F281E02D8681978190931D07F4
:1011900080931C070895DC0101C06D9341505040BD
:1011A000E0F70895FB01DC014150504048F0019008
:1011B0000D920020C9F701C01D9241505040E0F748
:0611C0000895F894FFCF32
:1011C600000074072000FFFF5265635461736B00D3
:1011D60053656E645461736B0054656D705461732E
:1011E6006B0046616E5461736B0049444C450000C8
:00000001FF
