S01700004763634170706C69636174696F6E312E737265635B
S113000045C0000061C000005FC000005DC000008A
S11300105BC0000059C0000057C0000055C000007C
S113002053C0000051C000004FC000004DC000008C
S11300304BC00000A0C7000047C0000045C000003E
S113004043C0000041C000003FC000003DC00000AC
S11300503BC0000039C0000037C0000035C00000BC
S113006033C0000031C000002FC000002DC00000CC
S11300702BC0000029C0000027C0000025C00000DC
S113008023C0000021C000001FC0000011241FBEB7
S1130090CFEFD0E4DEBFCDBF12E0A0E0B1E0EAE7ED
S11300A0F6E100E00BBF02C007900D92AA30B10741
S11300B0D9F728E0AAE0B2E001C01D92AF34B2073C
S11300C0E1F7C9D50C943B0B9BCFCF93DF93EC01A5
S11300D00E94190940910A0250910B029E01240FBB
S11300E0351F2C3D85E0380758F44217530758F460
S11300F0EA01C45FDD4F30930B0220930A0205C06E
S1130100C0E0D0E002C0C0E0D0E00E94E3098C2F40
S11301109D2FDF91CF9108950895FC01039692835A
S113012081832FEF3FEF34832383968385839087E6
S1130130878310820895FC01118610860895CF9359
S1130140DF93FC01DB0121813281E9018A819B81FA
S113015013969C938E9312978181928115969C930A
S11301608E9314978A819B81EC017D836C83E901D2
S11301707B836A83728361831996FC93EE93189749
S113018080818F5F8083DF91CF910895CF93DF9338
S1130190EB01488159814F3F2FEF520731F4DC01C5
S11301A01796ED91FC91189717C0FC013396DC016A
S11301B015962D913C911697D9012D913C9142179A
S11301C0530750F00280F381E02DA281B3812D9179
S11301D03C9142175307B0F7A281B381BB83AA8332
S11301E01596DC93CE931497FD83EC83D383C2835B
S11301F099878887FC0120812F5F2083DF91CF912D
S11302000895FC01A281B3818481958115969C9304
S11302108E931497A481B5818281938113969C93C4
S11302208E931297A085B18511968D919C9112970A
S11302308E179F0731F48481958112969C938E9337
S11302401197118610868C9181508C9308954423C4
S113025051F041E050E09A0102C0220F331F6A9529
S1130260E2F7822B089521E030E0A90102C0440F97
S1130270551F6A95E2F7BA0160958623089521E037
S113028030E0A90102C0440F551F6A95E2F78423A8
S1130290089540E064E08FEFDADF88B9000086B1AA
S11302A060E08095ECDF81116EC086B161E08095DD
S11302B0E6DF81116AC086B162E08095E0DF8111DA
S11302C066C086B163E08095DADF811162C040E0E8
S11302D065E08FEFBCDF88B9000086B160E08095EF
S11302E0CEDF811158C086B161E08095C8DF8111ED
S11302F054C086B162E08095C2DF811150C086B1DE
S113030063E08095BCDF81114CC040E066E08FEF74
S11303109EDF88B9000086B160E08095B0DF81116E
S113032042C086B161E08095AADF81113EC086B1EA
S113033062E08095A4DF81113AC086B163E08095C4
S11303409EDF811136C040E067E08FEF80DF88B91F
S1130350000086B160E0809592DF81112CC086B1E7
S113036061E080958CDF811128C086B162E08095C0
S113037086DF811124C086B163E0809580DF882305
S113038001F184E4089581E3089584E3089587E303
S113039008958AE2089582E3089585E3089588E341
S11303A0089580E3089583E3089586E3089589E337
S11303B0089583E2089581E4089582E4089583E42E
S11303C0089580E00895181619065CF00895000059
S11303D021503109E1F74F5F5F4F4817590729F45E
S11303E0089540E050E067E073E09B01F0CF10987F
S11303F08BB9119A0000119882E090E0E4CF81E07B
S1130400F6CF84E690E0DFDF88E3F1DF86E0EFDF1C
S11304108FE0EDDF81E0EBDF8AE090E0D4CF109A4B
S11304208BB9119A0000119881E090E0CCCF813112
S113043010F48158DCCF8155DACF1F93CF93DF932B
S1130440182FEB01DCDF9881992351F0812F182FAD
S11304501F5FEDDF8991E3DF812F98819111F7CF41
S1130460DF91CF911F91089580914E08823069F1F8
S113047028F4882341F0813089F524C0833041F188
S1130480843061F528C005DF813421F481E0809354
S11304904E082FC0FEDE823421F482E080934E08A1
S11304A02CC0F7DE833421F483E080934E0829C006
S11304B0F0DE843421F484E080934E0826C0109248
S11304C04E08089510924E08089510924E0808950B
S11304D010924E08089510924E080895823069F0E3
S11304E018F48130A9F405C0833059F0843081F4C4
S11304F00CC081E480934808089582E480934808FE
S1130500089583E480934808089584E48093480818
S11305100895DF92EF92FF920F931F93CF93DF938F
S113052000D000D000D0CDB7DEB786E0EBE1F1E03B
S1130530DE01119601900D928A95E1F7609109010F
S113054070910A0181E079DF8E010F5F1F4F7E01F8
S113055086E0E80EF11C9DDED82E8CE291E033DFBC
S1130560DD20C9F3F801D1928F01BE016F5F7F4F87
S113057081E063DF0E151F0571F7998180910001F9
S1130580981314C09A818091010198130FC09B8124
S11305908091020198130AC09C81809103019813F1
S11305A005C09D8180910401981741F06091050177
S11305B07091060181E041DF80E001C081E0269670
S11305C00FB6F894DEBF0FBECDBFDF91CF911F9160
S11305D00F91FF90EF90DF900895BF92CF92DF923A
S11305E0EF92FF920F931F93CF93DF9300D000D02D
S11305F000D0CDB7DEB786E0EBE1F1E0DE01119685
S113060001900D928A95E1F76091070170910801BC
S113061081E013DF8E010F5F1F4F0F2EF0E0EF2EEE
S1130620F1E0FF2EF02D6E0186E0C80ED11C31DE04
S1130630B82E8CE291E0C7DEBB20C9F3F801B19279
S11306408F01F701B1927F01F3E2BF1629F0BE01D9
S11306506F5F7F4F81E0F1DE0C151D0541F7269693
S11306600FB6F894DEBF0FBECDBFDF91CF911F91BF
S11306700F91FF90EF90DF90CF90BF9008958091FD
S11306804408823009F43CC030F4882359F08130A6
S113069009F05CC018C0833009F441C0843009F00B
S11306A055C049C080914C08813031F460911501E6
S11306B070911601C2DE4AC0609113017091140159
S11306C081E0BBDE43C025DF8823B9F081E080935D
S11306D04D0880914708882339F060911101709189
S11306E0120181E0AADE06C060910F017091100131
S11306F081E0A3DE8CED95E066DE1092480826C00A
S113070060910D0170910E0181E097DE8CED95E012
S11307105ADEFFDE811161DF1092480817C0809114
S11307204C08813011F482E001C081E080934C08D0
S1130730109248080BC060910B0170910C0181E08C
S11307407CDE8CED95E03FDE1092480880914408F1
S1130750823051F128F4882341F0813069F521C0B9
S1130760833029F1843041F525C0809148088823DD
S113077019F1813421F481E080934408089582348E
S113078021F482E0809344080895833421F483E0C3
S1130790809344080895843479F484E08093440871
S11307A008951092440808951092440808951092F0
S11307B044080895109244080895809146088430AE
S11307C009F499C050F4813051F198F0823009F461
S11307D04AC0833009F042C16AC0863009F4D3C0EC
S11307E008F4ADC0873009F4F2C0883009F036C18E
S11307F012C180914D08882309F44BC180914708A8
S1130800882331F081E0809346088093450826C10F
S113081088E08093460882E0809345081FC12091B8
S11308204208309143088091490890914A0828175A
S1130830390769F41092460810924D0881E09091AE
S11308404508913009F480E08093470807C18091FE
S11308504508813021F482E0809346082DC188E068
S1130860809346087DC120914208309143088091CD
S1130870490890914A082817390769F410924608E4
S113088010924D0881E090914508913009F480E080
S113089080934708E3C080914508813021F483E0C8
S11308A08093460817C181E080934608F7C02091E1
S11308B04208309143088091490890914A082817CA
S11308C0390769F41092460810924D0881E090911E
S11308D04508913009F480E080934708BFC08091B7
S11308E04508813021F484E08093460801C182E008
S11308F080934608E1C020914208309143088091DA
S1130900490890914A082817390769F41092460853
S113091010924D0881E090914508913009F480E0EF
S1130920809347089BC080914508813021F485E07D
S113093080934608EBC083E080934608CBC02091A7
S11309404208309143088091490890914A08281739
S1130950390769F41092460810924D0881E090918D
S11309604508913009F480E08093470877C080916E
S11309704508813021F486E080934608D5C084E0A0
S113098080934608B5C02091420830914308809175
S1130990490890914A082817390769F410924608C3
S11309A010924D0881E090914508913009F480E05F
S11309B08093470853C080914508813021F487E033
S11309C080934608BFC085E0809346089FC020916D
S11309D04208309143088091490890914A082817A9
S11309E0390769F41092460810924D0881E09091FD
S11309F04508913009F480E0809347082FC0809126
S1130A004508813021F488E080934608A9C086E037
S1130A108093460889C02091420830914308809110
S1130A20490890914A082817390769F41092460832
S1130A3010924D0881E090914508913009F480E0CE
S1130A40809347080BC080914508813019F4809346
S1130A50460824C087E08093460874C08091460805
S1130A60843009F445C048F48130C1F090F08230FC
S1130A7019F1833009F081C02DC0863009F454C0C7
S1130A8008F444C0873009F45DC0883009F075C0AB
S1130A9067C01092430810924208089584E080933E
S1130AA04B0882B980914208909143080396909331
S1130AB043088093420808958CE080934B0882B9E0
S1130AC08091420890914308039690934308809341
S1130AD04208089588E080934B0882B980914208C7
S1130AE09091430803969093430880934208089595
S1130AF088E180934B0882B9809142089091430821
S1130B0003969093430880934208089580E180936C
S1130B104B0882B9809142089091430803969093C0
S1130B20430880934208089580E380934B0882B978
S1130B3080914208909143080396909343088093D0
S1130B404208089580E280934B0882B9809142085C
S1130B509091430803969093430880934208089524
S1130B6084E280934B0882B98091420890914308B3
S1130B700396909343088093420808951092460880
S1130B8010924B0880E098E190934A0880934908BA
S1130B901092450810924308109242080895EEDF1F
S1130BA00CDE83E090E0D8D4FBCF10924E08109274
S1130BB048080895FADF58DC84E690E0CDD4FBCFF2
S1130BC081E08093470880934C081092440808956C
S1130BD0F7DF17DC609117017091180181E02DDCBB
S1130BE088EB9BE0F0DB4BDD84EF91E0B5D4FBCFE9
S1130BF0AF92BF92CF92DF92EF92FF920F93CF9377
S1130C00A12CB12CC12CD12CE12CF12C082F20E0EB
S1130C1030E045E550E061E271E08AED95E0E2D133
S1130C2020E030E045E550E069E271E088EE95E0CF
S1130C30D9D120E030E045E550E061E371E08FEC8C
S1130C4095E0D0D1CF910F91FF90EF90DF90CF90AE
S1130C50BF90AF9008958FEF81B912B884B915B8D9
S1130C6090EF97B99FE098B98AB91BB881E0C0DFCB
S1130C70B7D280E090E0089531E1FC0130833197F0
S1130C8022E22083FC013297A3E3A083FC01339783
S1130C906083FC0134977083FC0135971082FC015A
S1130CA0369760E86083FC0137971082FC0138971F
S1130CB062E06083FC01399763E06083FC013A974A
S1130CC064E06083FC013B9765E06083FC013C9732
S1130CD066E06083FC013D9767E06083FC013E971A
S1130CE068E06083FC013F9769E06083FC017097D2
S1130CF060E16083FC0171973083FC01729732E1FB
S1130D003083FC01739733E13083FC01749734E141
S1130D103083FC01759735E13083FC01769736E129
S1130D203083FC01779737E13083FC01789738E111
S1130D303083FC01799739E13083FC017A9730E202
S1130D403083FC017B9731E23083FC017C97208364
S1130D50FC017D9723E22083FC017E974083FC0104
S1130D607F975083FC01B09726E22083FC01B19762
S1130D7027E22083FC01B29728E22083FC01B39789
S1130D8029E22083FC01B49720E32083FC01B5977A
S1130D9021E320839C0126523109822F932F089549
S1130DA0109289008CE7809388008BE08093810007
S1130DB0EFE6F0E0808182608083A091F607B09135
S1130DC0F707CD91CDBFDD91DEBFFF91EF91DF91AC
S1130DD0CF91BF91AF919F918F917F916F915F91CF
S1130DE04F913F912F911F910F91FF90EF90DF90C2
S1130DF0CF90BF90AF909F908F907F906F905F90B7
S1130E004F903F902F901F900F900FBE0F9008951A
S1130E1081E008950F920FB6F8940F921F92112457
S1130E202F923F924F925F926F927F928F929F92F6
S1130E30AF92BF92CF92DF92EF92FF920F931F93E4
S1130E402F933F934F935F936F937F938F939F93CE
S1130E50AF93BF93CF93DF93EF93FF93A091F607E4
S1130E60B091F7070DB60D920EB60D9291D3A091E5
S1130E70F607B091F707CD91CDBFDD91DEBFFF91AD
S1130E80EF91DF91CF91BF91AF919F918F917F911E
S1130E906F915F914F913F912F911F910F91FF900F
S1130EA0EF90DF90CF90BF90AF909F908F907F9006
S1130EB06F905F904F903F902F901F900F900FBEB8
S1130EC00F9008950F920FB6F8940F921F92112469
S1130ED02F923F924F925F926F927F928F929F9246
S1130EE0AF92BF92CF92DF92EF92FF920F931F9334
S1130EF02F933F934F935F936F937F938F939F931E
S1130F00AF93BF93CF93DF93EF93FF93A091F60733
S1130F10B091F7070DB60D920EB60D9290D138D35D
S1130F20A091F607B091F707CD91CDBFDD91DEBF5B
S1130F30FF91EF91DF91CF91BF91AF919F918F91ED
S1130F407F916F915F914F913F912F911F910F91DD
S1130F50FF90EF90DF90CF90BF90AF909F908F90D5
S1130F607F906F905F904F903F902F901F900F90C5
S1130F700FBE0F900895A6DF1895CF93DF93EC0171
S1130F80E091F607F091F707938382838091EE074F
S1130F909091EF07C817D90760F46091F607709134
S1130FA0F7078091F2079091F3076E5F7F4FEED8B9
S1130FB016C06091F6077091F7078091F40790913D
S1130FC0F5076E5F7F4FE2D88091190190911A0165
S1130FD0C817D90720F4D0931A01C0931901DF91DF
S1130FE0CF9108954F925F926F927F928F929F92CA
S1130FF0AF92BF92CF92DF92EF92FF920F931F9323
S1131000CF93DF934C013B015A01290181E290E027
S11310105CD8EC01009709F4D1C0C114D10409F0E3
S1131020CAC0C50152D86C01988F8F8B009719F4F0
S1131030CE0172D8C3C0A50165EA70E0C60105D32C
S113104081E0A81AB1088F89988DA80EB91E48E0CE
S113105050E0B301CE014996FFD218A2102F0430FC
S113106008F013E01E8B6E01E2E0CE0ED11CC60127
S113107062D8CE010C965FD8D987C88784E090E007
S1131080811B91099D878C87DB8BCA8BA201B401DC
S1131090C501F2DD99838883E114F10419F0F701A5
S11310A0D183C0830FB6F8940F928091F0078F5FBD
S11310B08093F0078091F6079091F707892BB9F593
S11310C0D093F707C093F6078091F007813009F0B9
S11310D03DC0E12CF12CC701880F991F880F991F7F
S11310E0880F991F8E0D9F1D8650984F16D8FFEFBD
S11310F0EF1AFF0A84E0E816F10469F78EE198E03C
S11311000CD887E298E009D880E398E006D889E310
S113111098E003D88EE198E09093F5078093F40764
S113112087E298E09093F3078093F2070FC08091D1
S1131130EC0781110BC0E091F607F091F70786895F
S1131140081720F0D093F707C093F6078E89909183
S1131150F807981710F48093F8079091F9079F5FA8
S11311609093F9079091ED07981710F48093ED0789
S113117090E09C01220F331F220F331F220F331FD5
S1131180820F931FB6018650984F0E949F000F90C4
S11311900FBE8091EC07882351F0E091F607F0919F
S11311A0F7078689801728F435DE81E008C081E0DE
S11311B006C081E004C0D88ECF8A3DCF8FEFDF9187
S11311C0CF911F910F91FF90EF90DF90CF90BF9040
S11311D0AF909F908F907F906F905F904F90089505
S11311E0AF92BF92CF92DF92EF92FF920F93A12C16
S11311F0B12CC12CD12CE12CF12C00E020E030E00A
S113120045E550E065E072E08FE69AE0EBDE813080
S113121041F4F8948093EC071092EF071092EE07D4
S1131220BFDD0F91FF90EF90DF90CF90BF90AF9014
S113123008958091EB078F5F8093EB0708950F93D8
S11312401F93CF93DF938091EB078111B2C08091FC
S1131250EE079091EF0701969093EF078093EE07C6
S11312608091EE079091EF07892B99F58091F4070F
S11312709091F5072091F2073091F3073093F50729
S11312802093F4079093F3078093F2078091E80783
S11312908F5F8093E807E091F407F091F507808170
S11312A0811107C08FEF9FEF90931A01809319016A
S11312B010C0E091F407F091F5070580F681E02D68
S11312C00680F781E02D8281938190931A018093A7
S11312D019012091EE073091EF0780911901909147
S11312E01A012817390708F469C0E091F407F0914E
S11312F0F5078081882399F0E091F407F091F507D0
S11313000580F681E02DC681D7818A819B81209159
S1131310EE073091EF0728173907F8F419C08FEF5B
S11313209FEF90931A018093190148C0E091F4074C
S1131330F091F5070580F681E02DC681D7818A8179
S11313409B812091EE073091EF072817390728F485
S113135090931A018093190131C08E010E5F1F4FC3
S1131360C8010E9401018C899D89892B21F0CE013D
S11313700C960E9401018E899091ED07981710F444
S11313808093ED0790E09C01220F331F220F331F3F
S1131390220F331F820F931FB8018650984F0E946B
S11313A09F00E091F407F091F50780818111BECF91
S11313B0B6CF8091EA078F5F8093EA07DF91CF91E0
S11313C01F910F910895AF92BF92CF92DF92EF9247
S11313D0FF920F931F93CF93DF930FB6F8940F925E
S11313E08091EB0781508093EB078091EB0781118B
S11313F066C08091F007811130C064C0D601ED91C0
S1131400FC91C681D781CE010C960E9401018E0108
S11314100E5F1F4FC8010E9401018E899091ED0754
S1131420981710F48093ED0790E09C01220F331F6E
S1131430220F331F220F331F820F931FB8018650D0
S1131440984F0E949F00E091F607F091F7079E895C
S11314508689981788F0BA2C0FC0B12C0F2EF0E3B0
S1131460EF2EF8E0FF2EF02D0F2EF5E3CF2EF8E04F
S1131470DF2EF02DAA24A394F70180818111BECF21
S11314808091EA07882379F08091EA07882391F014
S1131490D6DE8091EA0781508093EA078091EA07BB
S11314A08111F6CF07C0F1E0BF1621F08091E90762
S11314B0813039F41092E907ADDC81E003C080E0AB
S11314C001C080E00F900FBEDF91CF911F910F916B
S11314D0FF90EF90DF90CF90BF90AF9008950F2EC4
S11314E0F9E3EF2EF8E0FF2EF02D0F2EFEE3CF2EC2
S11314F0F8E0DF2EF02DCAEFD7E08091F1078823C2
S113150031F197DED7011C915EDF112301F10FB693
S1131510F8940F92D601ED91FC9106811781C801D0
S113152002960E9401018091F00781508093F00798
S11315308091F10781508093F1070F900FBEF8015D
S11315408789908D0E948C00C8010E948C0088813C
S1131550823098F25FDCD1CFCF93DF93EC01009718
S113156099F067DE8091EE079091EF07C80FD91FBD
S11315708091F6079091F70702960E940101CE012F
S1131580FCDC21DF811101C045DCDF91CF9108959E
S11315908091EB07811113C08091ED0790E0FC016D
S11315A0EE0FFF1FEE0FFF1FEE0FFF1F8E0F9F1F8B
S11315B0FC01E650F84F8081882329F01BC081E0AC
S11315C08093E90708958091ED0781508093ED079A
S11315D08091ED0790E0FC01EE0FFF1FEE0FFF1F5F
S11315E0EE0FFF1F8E0F9F1FFC01E650F84F808106
S11315F0882349F3E091ED07F0E0CF01880F991FAC
S1131600880F991F880F991FE80FF91FE650F84FAC
S1131610A181B28112960D90BC91A02DB283A183B9
S1131620CF010396A817B90731F412968D919C91B6
S11316301397928381830180F281E02D86819781C3
S11316409093F7078093F6070895DC0101C06D932A
S113165041505040E0F70895FB01DC0141505040F7
S113166048F001900D920020C9F701C01D9241502D
S10D16705040E0F70895F894FFCF0E
S113167A31323341233B01490161017501850193EB
S113168A01A001AF01CC01EB01FFFF2020202020A3
S113169A004B65795461736B004C43445461736B1A
S11316AA004D6F746F725461736B00496E76616C8E
S11316BA696420636F64652100456E746572206EE7
S11316CA657720342D646967697420636F64653AA9
S11316DA00456E7465722063757272656E74206358
S11316EA6F64653A0053657474696E6720414320D8
S11316FA54656D70004368616E67696E6720636F35
S113170A6465004C6F636B696E6720446F6F720087
S113171A556E6C6F636B696E6720646F6F720053EA
S113172A65742041432074656D703A204420204E2C
S113173A65787420506167653A204300446F6F727C
S113174A204C6F636B3A2041202020204368616E4D
S113175A676520436F64653A204200446F6F7220C4
S113176A556E6C6F636B657220202050726F746FB4
S10D177A747970650049444C450081
S9030000FC
