S01700004763634170706C69636174696F6E312E737265635B
S113000045C0000061C000005FC000005DC000008A
S11300105BC0000059C0000057C0000055C000007C
S113002053C0000051C000004FC000004DC000008C
S11300304BC00000E2C6000047C0000045C00000FD
S113004043C0000041C000003FC000003DC00000AC
S11300503BC0000039C0000037C0000035C00000BC
S113006033C0000031C000002FC000002DC00000CC
S11300702BC0000029C0000027C0000025C00000DC
S113008023C0000021C000001FC0000011241FBEB7
S1130090CFEFD0E4DEBFCDBF11E0A0E0B1E0E8EFE8
S11300A0F4E100E00BBF02C007900D92A03CB10741
S11300B0D9F728E0A0ECB1E001C01D92A530B20749
S11300C0E1F70BD50C947A0A9BCFCF93DF93EC0125
S11300D0F1D74091C0015091C1019E01240F351FF9
S11300E02C3D85E0380758F44217530758F4EA01C9
S11300F0CE53DE4F3093C1012093C00105C0C0E050
S1130100D0E002C0C0E0D0E00E9422098C2F9D2FD5
S1130110DF91CF9108950895FC0103969283818322
S11301202FEF3FEF348323839683858390878783E0
S113013010820895FC01118610860895CF93DF93F1
S1130140FC01DB0121813281E9018A819B811396C3
S11301509C938E9312978181928115969C938E9392
S113016014978A819B81EC017D836C83E9017B83F5
S11301706A83728361831996FC93EE931897808146
S11301808F5F8083DF91CF910895CF93DF93EB014D
S1130190488159814F3F2FEF520731F4DC01179604
S11301A0ED91FC91189717C0FC013396DC0115966C
S11301B02D913C911697D9012D913C9142175307EB
S11301C050F00280F381E02DA281B3812D913C9106
S11301D042175307B0F7A281B381BB83AA83159654
S11301E0DC93CE931497FD83EC83D383C2839987E6
S11301F08887FC0120812F5F2083DF91CF910895B0
S1130200FC01A281B3818481958115969C938E9380
S11302101497A481B5818281938113969C938E93C4
S11302201297A085B18511968D919C9112978E1786
S11302309F0731F48481958112969C938E93119734
S1130240118610868C9181508C930895442351F02B
S113025041E050E09A0102C0220F331F6A95E2F791
S1130260822B089521E030E0A90102C0440F551FFC
S11302706A95E2F7BA0160958623089521E030E09B
S1130280A90102C0440F551F6A95E2F7842308951B
S113029040E064E08FEFDADF88B9000086B160E007
S11302A08095ECDF81116EC086B161E08095E6DF58
S11302B081116AC086B162E08095E0DF811166C079
S11302C086B163E08095DADF811162C040E065E0C9
S11302D08FEFBCDF88B9000086B160E08095CEDF87
S11302E0811158C086B161E08095C8DF811154C086
S11302F086B162E08095C2DF811150C086B163E0AF
S11303008095BCDF81114CC040E066E08FEF9EDF3A
S113031088B9000086B160E08095B0DF811142C0E9
S113032086B161E08095AADF81113EC086B162E0AA
S11303308095A4DF81113AC086B163E080959EDF89
S1130340811136C040E067E08FEF80DF88B900009C
S113035086B160E0809592DF81112CC086B161E0A6
S113036080958CDF811128C086B162E0809586DF9C
S1130370811124C086B163E0809580DF882301F178
S113038084E4089581E3089584E3089587E3089558
S11303908AE2089582E3089585E3089588E3089541
S11303A080E3089583E3089586E3089589E3089537
S11303B083E2089581E4089582E4089583E408952E
S11303C080E00895181619065CF008950000215085
S11303D03109E1F74F5F5F4F4817590729F4089532
S11303E040E050E067E073E09B01F0CF10988BB9D8
S11303F0119A0000119882E090E0E4CF81E0F6CFFA
S113040084E690E0DFDF88E3F1DF86E0EFDF8FE072
S1130410EDDF81E0EBDF8AE090E0D4CF109A8BB976
S1130420119A0000119881E090E0CCCF813110F452
S11304308158DCCF8155DACF1F93CF93DF93182FE8
S1130440EB01DCDF9881992351F0812F182F1F5F76
S1130450EDDF8991E3DF812F98819111F7CFDF914F
S1130460CF911F91089580910408823069F128F496
S1130470882341F0813089F524C0833041F18430F0
S113048061F528C005DF813421F481E080930408FC
S11304902FC0FEDE823421F482E0809304082CC055
S11304A0F7DE833421F483E08093040829C0F0DE6E
S11304B0843421F484E08093040826C01092040854
S11304C00895109204080895109204080895109253
S11304D004080895109204080895823069F018F40D
S11304E08130A9F405C0833059F0843081F40CC004
S11304F081E48093FE07089582E48093FE070895C3
S113050083E48093FE07089584E48093FE070895AE
S11305108091FA078230C9F130F4882359F0813090
S113052009F056C018C0833009F43BC0843009F088
S11305304FC043C080910208813031F460910A01B8
S113054070910B0179DF44C0609108017091090139
S113055081E072DF3DC08091FD07882339F060910E
S113056006017091070181E067DF06C06091040114
S11305707091050181E060DF81E0809303088CEDD8
S113058095E020DF1092FE0723C060910201709174
S1130590030181E051DF8CED95E014DF1092FE073A
S11305A017C080910208813011F482E001C081E01B
S11305B0809302081092FE070BC0609100017091B5
S11305C0010181E039DF8CED95E0FCDE1092FE073D
S11305D08091FA07823051F128F4882341F0813068
S11305E069F521C0833029F1843041F525C080911B
S11305F0FE07882319F1813421F481E08093FA07FE
S11306000895823421F482E08093FA0708958334B4
S113061021F483E08093FA070895843479F484E024
S11306208093FA0708951092FA0708951092FA0732
S113063008951092FA0708951092FA070895809188
S1130640FC07843009F499C050F4813051F198F0DA
S1130650823009F44AC0833009F042C16AC086304E
S113066009F4D3C008F4ADC0873009F4F2C088306F
S113067009F036C112C180910308882309F44BC1E3
S11306808091FD07882331F081E08093FC078093FB
S1130690FB0726C188E08093FC0782E08093FB0778
S11306A01FC12091F8073091F9078091FF079091BD
S11306B000082817390769F41092FC071092030800
S11306C081E09091FB07913009F480E08093FD076D
S11306D007C18091FB07813021F482E08093FC07FD
S11306E02DC188E08093FC077DC12091F8073091EB
S11306F0F9078091FF07909100082817390769F4DA
S11307001092FC071092030881E09091FB0791304E
S113071009F480E08093FD07E3C08091FB078130FA
S113072021F483E08093FC0717C181E08093FC07E8
S1130730F7C02091F8073091F9078091FF07909155
S113074000082817390769F41092FC07109203086F
S113075081E09091FB07913009F480E08093FD07DC
S1130760BFC08091FB07813021F484E08093FC07B3
S113077001C182E08093FC07E1C02091F807309129
S1130780F9078091FF07909100082817390769F449
S11307901092FC071092030881E09091FB079130BE
S11307A009F480E08093FD079BC08091FB078130B2
S11307B021F485E08093FC07EBC083E08093FC0781
S11307C0CBC02091F8073091F9078091FF079091F1
S11307D000082817390769F41092FC0710920308DF
S11307E081E09091FB07913009F480E08093FD074C
S11307F077C08091FB07813021F486E08093FC0769
S1130800D5C084E08093FC07B5C02091F8073091EF
S1130810F9078091FF07909100082817390769F4B8
S11308201092FC071092030881E09091FB0791302D
S113083009F480E08093FD0753C08091FB07813069
S113084021F487E08093FC07BFC085E08093FC0718
S11308509FC02091F8073091F9078091FF0790918C
S113086000082817390769F41092FC07109203084E
S113087081E09091FB07913009F480E08093FD07BB
S11308802FC08091FB07813021F488E08093FC071E
S1130890A9C086E08093FC0789C02091F8073091B5
S11308A0F9078091FF07909100082817390769F428
S11308B01092FC071092030881E09091FB0791309D
S11308C009F480E08093FD070BC08091FB07813021
S11308D019F48093FC0724C087E08093FC0774C05C
S11308E08091FC07843009F445C048F48130C1F09C
S11308F090F0823019F1833009F081C02DC0863028
S113090009F454C008F444C0873009F45DC0883049
S113091009F075C067C01092F9071092F80708959E
S113092084E08093010882B98091F8079091F907D7
S113093003969093F9078093F80708958CE08093C9
S1130940010882B98091F8079091F9070396909372
S1130950F9078093F807089588E08093010882B925
S11309608091F8079091F90703969093F907809383
S1130970F807089588E18093010882B98091F80707
S11309809091F90703969093F9078093F8070895D7
S113099080E18093010882B98091F8079091F9076A
S11309A003969093F9078093F807089580E3809362
S11309B0010882B98091F8079091F9070396909302
S11309C0F9078093F807089580E28093010882B9BB
S11309D08091F8079091F90703969093F907809313
S11309E0F807089584E28093010882B98091F8079A
S11309F09091F90703969093F9078093F807089567
S1130A001092FC071092010880E098E1909300088E
S1130A108093FF071092FB071092F9071092F807D2
S1130A200895EEDF0CDE83E090E0D5D4FBCF109286
S1130A3004081092FE070895FADF15DD84E690E0BD
S1130A40CAD4FBCF81E08093FD0780930208109203
S1130A50FA070895F7DFD4DC60910C0170910D0161
S1130A6081E0EADC88EB9BE0ADDC52DD84EF91E0D1
S1130A70B2D4FBCFAF92BF92CF92DF92EF92FF92AC
S1130A800F93CF93A12CB12CC12CD12CE12CF12CA0
S1130A90082F20E030E045E550E060E171E08CE1B2
S1130AA095E0E2D120E030E045E550E068E171E016
S1130AB08AE295E0D9D120E030E045E550E060E2FB
S1130AC071E081E195E0D0D1CF910F91FF90EF904B
S1130AD0DF90CF90BF90AF9008958FEF81B912B897
S1130AE084B915B890EF97B99FE098B98AB91BB843
S1130AF081E0C0DFB6D280E090E0089531E1FC01EE
S1130B003083319722E22083FC013297A3E3A08350
S1130B10FC0133976083FC0134977083FC013597A3
S1130B201082FC01369760E86083FC0137971082DD
S1130B30FC01389762E06083FC01399763E06083CD
S1130B40FC013A9764E06083FC013B9765E06083B5
S1130B50FC013C9766E06083FC013D9767E060839D
S1130B60FC013E9768E06083FC013F9769E0608385
S1130B70FC01709760E16083FC0171973083FC0194
S1130B80729732E13083FC01739733E13083FC01C7
S1130B90749734E13083FC01759735E13083FC01AF
S1130BA0769736E13083FC01779737E13083FC0197
S1130BB0789738E13083FC01799739E13083FC017F
S1130BC07A9730E23083FC017B9731E23083FC0179
S1130BD07C972083FC017D9723E22083FC017E9790
S1130BE04083FC017F975083FC01B09726E2208369
S1130BF0FC01B19727E22083FC01B29728E220830D
S1130C00FC01B39729E22083FC01B49720E32083FD
S1130C10FC01B59721E320839C0126523109822FE0
S1130C20932F0895109289008CE7809388008BE0BD
S1130C3080938100EFE6F0E0808182608083A09160
S1130C40AC07B091AD07CD91CDBFDD91DEBFFF9173
S1130C50EF91DF91CF91BF91AF919F918F917F9150
S1130C606F915F914F913F912F911F910F91FF9041
S1130C70EF90DF90CF90BF90AF909F908F907F9038
S1130C806F905F904F903F902F901F900F900FBEEA
S1130C900F90089581E008950F920FB6F8940F9283
S1130CA01F9211242F923F924F925F926F927F92E4
S1130CB08F929F92AF92BF92CF92DF92EF92FF9268
S1130CC00F931F932F933F934F935F936F937F9350
S1130CD08F939F93AF93BF93CF93DF93EF93FF9340
S1130CE0A091AC07B091AD070DB60D920EB60D9262
S1130CF08ED3A091AC07B091AD07CD91CDBFDD915E
S1130D00DEBFFF91EF91DF91CF91BF91AF919F91A2
S1130D108F917F916F915F914F913F912F911F918F
S1130D200F91FF90EF90DF90CF90BF90AF909F9086
S1130D308F907F906F905F904F903F902F901F9077
S1130D400F900FBE0F9008950F920FB6F8940F9264
S1130D501F9211242F923F924F925F926F927F9233
S1130D608F929F92AF92BF92CF92DF92EF92FF92B7
S1130D700F931F932F933F934F935F936F937F939F
S1130D808F939F93AF93BF93CF93DF93EF93FF938F
S1130D90A091AC07B091AD070DB60D920EB60D92B1
S1130DA08FD135D3A091AC07B091AD07CD91CDBF14
S1130DB0DD91DEBFFF91EF91DF91CF91BF91AF91B4
S1130DC09F918F917F916F915F914F913F912F915F
S1130DD01F910F91FF90EF90DF90CF90BF90AF9055
S1130DE09F908F907F906F905F904F903F902F9047
S1130DF01F900F900FBE0F900895A6DF1895CF9304
S1130E00DF93EC01E091AC07F091AD07938382830B
S1130E108091A4079091A507C817D90760F4609141
S1130E20AC077091AD078091A8079091A9076E5FF8
S1130E307F4FABD916C06091AC077091AD0780911C
S1130E40AA079091AB076E5F7F4F9FD980910E01E7
S1130E5090910F01C817D90720F4D0930F01C093C4
S1130E600E01DF91CF9108954F925F926F927F921E
S1130E708F929F92AF92BF92CF92DF92EF92FF92A6
S1130E800F931F93CF93DF934C013B015A01290128
S1130E9081E290E01AD9EC01009709F4D0C0C114A2
S1130EA0D10409F0C9C0C50110D96C01988F8F8B8A
S1130EB0009719F4CE012FD9C2C0A50165EA70E0EC
S1130EC0C60102D381E0A81AB1088F89988DA80EB3
S1130ED0B91E48E050E0B301CE014996FCD218A2F5
S1130EE0102F043008F013E01E8B6E01E2E0CE0EEA
S1130EF0D11CC6011FD9CE010C961CD9D987C8872D
S1130F0084E090E0811B91099D878C87DB8BCA8BE1
S1130F10A201B401C501F2DD99838883E114F104CF
S1130F2019F0F701D183C0830FB6F8940F92809122
S1130F30A6078F5F8093A6078091AC079091AD07B9
S1130F40892BB9F5D093AD07C093AC078091A60760
S1130F50813009F03DC0E12CF12CC701880F991FA5
S1130F60880F991F880F991F8E0D9F1D8055984FCC
S1130F70D3D8FFEFEF1AFF0A84E0E816F10469F70B
S1130F8084ED97E0C9D88DED97E0C6D886EE97E05A
S1130F90C3D88FEE97E0C0D884ED97E09093AB0769
S1130FA08093AA078DED97E09093A9078093A807F3
S1130FB00FC08091A20781110BC0E091AC07F091A2
S1130FC0AD078689081720F0D093AD07C093AC070E
S1130FD08E899091AE07981710F48093AE07909184
S1130FE0AF079F5F9093AF079091A307981710F4F2
S1130FF08093A30790E09C01220F331F220F331F1D
S1131000220F331F820F931FB6018055984F96D835
S11310100F900FBE8091A207882351F0E091AC0796
S1131020F091AD078689801728F436DE81E008C088
S113103081E006C081E004C0D88ECF8A3ECF8FEF16
S1131040DF91CF911F910F91FF90EF90DF90CF90A0
S1131050BF90AF909F908F907F906F905F904F90D4
S11310600895AF92BF92CF92DF92EF92FF920F93C7
S1131070A12CB12CC12CD12CE12CF12C00E020E0CE
S113108030E045E550E06AEB71E08EEA99E0ECDE91
S1131090813041F4F8948093A2071092A50710922E
S11310A0A407C0DD0F91FF90EF90DF90CF90BF9029
S11310B0AF9008958091A1078F5F8093A107089551
S11310C00F931F93CF93DF938091A1078111B0C039
S11310D08091A4079091A50701969093A50780930A
S11310E0A4078091A4079091A507892B99F5809175
S11310F0AA079091AB072091A8073091A9073093D4
S1131100AB072093AA079093A9078093A80780911F
S11311109E078F5F80939E07E091AA07F091AB072B
S11311208081811107C08FEF9FEF90930F0180930F
S11311300E0110C0E091AA07F091AB070580F6817B
S1131140E02D0680F781E02D8281938190930F0139
S113115080930E012091A4073091A50780910E0180
S113116090910F012817390708F467C0E091AA0786
S1131170F091AB078081882399F0E091AA07F09160
S1131180AB070580F681E02DC681D7818A819B81DA
S11311902091A4073091A50728173907F8F419C03E
S11311A08FEF9FEF90930F0180930E0146C0E09163
S11311B0AA07F091AB070580F681E02DC681D7819F
S11311C08A819B812091A4073091A50728173907AC
S11311D028F490930F0180930E012FC08E010E5FAF
S11311E01F4FC8010DD88C899D89892B19F0CE0118
S11311F00C9606D88E899091A307981710F48093C3
S1131200A30790E09C01220F331F220F331F220FEC
S1131210331F820F931FB8018055984F0E949E0080
S1131220E091AA07F091AB0780818111C0CFB8CFBC
S11312308091A0078F5F8093A007DF91CF911F91CA
S11312400F910895AF92BF92CF92DF92EF92FF92E7
S11312500F931F93CF93DF930FB6F8940F9280915F
S1131260A10781508093A1078091A107811166C0D5
S11312708091A607811130C064C0D601ED91FC9124
S1131280C681D781CE010C960E9400018E010E5FAB
S11312901F4FC8010E9400018E899091A3079817DF
S11312A010F48093A30790E09C01220F331F220FB8
S11312B0331F220F331F820F931FB8018055984F9D
S11312C00E949E00E091AC07F091AD079E8986894B
S11312D0981788F0BA2C0FC0B12C0F2EF6EEEF2E13
S11312E0F7E0FF2EF02D0F2EFBEECF2EF7E0DF2ED2
S11312F0F02DAA24A394F70180818111BECF80919F
S1131300A007882379F08091A007882391F0D8DE84
S11313108091A00781508093A0078091A00781113C
S1131320F6CF07C0F1E0BF1621F080919F0781300E
S113133039F410929F07B0DC81E003C080E001C063
S113134080E00F900FBEDF91CF911F910F91FF901E
S1131350EF90DF90CF90BF90AF9008950F2EFFEEE7
S1131360EF2EF7E0FF2EF02D0F2EF4EFCF2EF7E047
S1131370DF2EF02DC0EBD7E08091A707882331F151
S113138099DED7011C915EDF112301F10FB6F894A9
S11313900F92D601ED91FC9106811781C801029646
S11313A00E9400018091A60781508093A607809136
S11313B0A70781508093A7070F900FBEF801878974
S11313C0908D0E948B00C8010E948B00888182301E
S11313D098F262DCD1CFCF93DF93EC01009799F0C0
S11313E069DE8091A4079091A507C80FD91F809149
S11313F0AC079091AD0702960E940001CE01FFDC7C
S113140021DF811101C048DCDF91CF9108958091E3
S1131410A107811113C08091A30790E0FC01EE0F96
S1131420FF1FEE0FFF1FEE0FFF1F8E0F9F1FFC010C
S1131430E055F84F8081882329F01BC081E0809318
S11314409F0708958091A30781508093A3078091FB
S1131450A30790E0FC01EE0FFF1FEE0FFF1FEE0F3E
S1131460FF1F8E0F9F1FFC01E055F84F80818823DA
S113147049F3E091A307F0E0CF01880F991F880F8B
S1131480991F880F991FE80FF91FE055F84FA181A4
S1131490B28112960D90BC91A02DB283A183CF018D
S11314A00396A817B90731F412968D919C9113975E
S11314B0928381830180F281E02D868197819093CC
S11314C0AD078093AC070895DC0101C06D934150D2
S11314D05040E0F70895FB01DC014150504048F0D2
S11314E001900D920020C9F701C01D924150504057
S10B14F0E0F70895F894FFCF22
S11314F82A013A014801550164018101A001FFFF55
S11315084B65795461736B004C43445461736B00AD
S11315184D6F746F725461736B0053657474696EA4
S1131528672041432054656D70004368616E6769A4
S11315386E6720636F6465004C6F636B696E672028
S1131548446F6F7200556E6C6F636B696E672064CD
S11315586F6F72005365742041432074656D703A4F
S1131568204420204E65787420506167653A2043F2
S113157800446F6F72204C6F636B3A204120202027
S1131588204368616E676520436F64653A204200B2
S1131598446F6F7220556E6C6F636B6572202020E8
S11315A850726F746F747970650049444C4500003B
S9030000FC
