S01700004763634170706C69636174696F6E312E737265635B
S113000045C0000061C000005FC000005DC000008A
S11300105BC0000059C0000057C0000055C000007C
S113002053C0000051C000004FC000004DC000008C
S11300304BC00000DDC4000047C0000045C0000004
S113004043C0000041C000003FC000003DC00000AC
S11300503BC0000039C0000037C0000035C00000BC
S113006033C0000031C000002FC000002DC00000CC
S11300702BC0000029C0000027C0000025C00000DC
S113008023C0000021C000001FC0000011241FBEB7
S1130090CFEFD0E4DEBFCDBF11E0A0E0B1E0EEEDE4
S11300A0F0E100E00BBF02C007900D92A63BB10740
S11300B0D9F727E0A6EBB1E001C01D92A33FB20738
S11300C0E1F706D30C946D089BCFCF93DF93EC013B
S11300D0ECD54091B6015091B7019E01240F351F14
S11300E02C3D85E0380758F44217530758F4EA01C9
S11300F0C854DE4F3093B7012093B60105C0C0E069
S1130100D0E002C0C0E0D0E097D68C2F9D2FDF91C5
S1130110CF9108950895FC010396928381832FEF74
S11301203FEF34832383968385839087878310826C
S11301300895FC01118610860895CF93DF93FC0186
S1130140DB0121813281E9018A819B8113969C9391
S11301508E9312978181928115969C938E93149716
S11301608A819B81EC017D836C83E9017B836A83B3
S1130170728361831996FC93EE93189780818F5F45
S11301808083DF91CF910895CF93DF93EB01488172
S113019059814F3F2FEF520731F4DC011796ED914F
S11301A0FC91189717C0FC013396DC0115962D912C
S11301B03C911697D9012D913C914217530750F069
S11301C00280F381E02DA281B3812D913C914217ED
S11301D05307B0F7A281B381BB83AA831596DC933E
S11301E0CE931497FD83EC83D383C2839987888746
S11301F0FC0120812F5F2083DF91CF910895FC01C2
S1130200A281B3818481958115969C938E931497D2
S1130210A481B5818281938113969C938E931297C6
S1130220A085B18511968D919C9112978E179F0789
S113023031F48481958112969C938E931197118643
S113024010868C9181508C930895442351F041E0A1
S113025050E09A0102C0220F331F6A95E2F7822B05
S1130260089521E030E0A90102C0440F551F6A95AA
S1130270E2F7BA0160958623089521E030E0A901F0
S113028002C0440F551F6A95E2F78423089540E0A5
S113029064E08FEFDADF88B9000086B160E0809512
S11302A0ECDF81116EC086B161E08095E6DF8111DB
S11302B06AC086B162E08095E0DF811166C086B1D4
S11302C063E08095DADF811162C040E065E08FEF82
S11302D0BCDF88B9000086B160E08095CEDF811173
S11302E058C086B161E08095C8DF811154C086B1E1
S11302F062E08095C2DF811150C086B163E08095D1
S1130300BCDF81114CC040E066E08FEF9EDF88B90E
S1130310000086B160E08095B0DF811142C086B1F3
S113032061E08095AADF81113EC086B162E08095CC
S1130330A4DF81113AC086B163E080959EDF81110C
S113034036C040E067E08FEF80DF88B9000086B1F7
S113035060E0809592DF81112CC086B161E08095C8
S11303608CDF811128C086B162E0809586DF81111F
S113037024C086B163E0809580DF882301F184E4A2
S1130380089581E3089584E3089587E308958AE254
S1130390089582E3089585E3089588E3089580E34A
S11303A0089583E3089586E3089589E3089583E235
S11303B0089581E4089582E4089583E4089580E033
S11303C00895181619065CF00895000021503109AB
S11303D0E1F74F5F5F4F4817590729F4089540E04C
S11303E050E067E073E09B01F0CF10988BB9119A4D
S11303F00000119882E090E0E4CF81E0F6CF84E63B
S113040090E0DFDF88E3F1DF86E0EFDF8FE0EDDF10
S113041081E0EBDF8AE090E0D4CF109A8BB9119A97
S11304200000119881E090E0CCCF813110F4815824
S1130430DCCF8155DACF1F93CF93DF93182FEB01D5
S1130440DCDF9881992351F0812F182F1F5FEDDF96
S11304508991E3DF812F98819111F7CFDF91CF91BB
S11304601F9108958091F207823069F128F488235E
S113047041F0813089F524C0833041F1843061F545
S113048028C005DF813421F481E08093F2072FC076
S1130490FEDE823421F482E08093F2072CC0F7DE82
S11304A0833421F483E08093F20729C0F0DE84349E
S11304B021F484E08093F20726C01092F207089595
S11304C01092F20708951092F20708951092F2071D
S11304D008951092F2070895823069F018F481307B
S11304E0A9F405C0833059F0843081F40CC081E450
S11304F08093F007089582E48093F007089583E4DD
S11305008093F007089584E48093F0070895809120
S1130510EE078230B1F130F4882359F0813009F0CC
S113052053C018C0833009F438C0843009F04CC07B
S113053040C08091F107813031F460910A017091DB
S11305400B0179DF41C0609108017091090181E0DC
S113055072DF3AC08091EF07882339F06091060179
S11305607091070181E067DF06C06091040170911A
S1130570050181E060DF8CED95E023DF1092F00748
S113058023C0609102017091030181E054DF8CED7E
S113059095E017DF1092F00717C08091F1078130C2
S11305A011F482E001C081E08093F1071092F0071A
S11305B00BC0609100017091010181E03CDF8CED82
S11305C095E0FFDE1092F0078091EE07823051F142
S11305D028F4882341F0813069F521C0833029F162
S11305E0843041F525C08091F007882319F18134C6
S11305F021F481E08093EE070895823421F482E0AF
S11306008093EE070895833421F483E08093EE070A
S11306100895843479F484E08093EE070895109269
S1130620EE0708951092EE0708951092EE070895CC
S11306301092EE0708951092F2071092F0070895B1
S1130640FADF10DF84E690E0BAD4FBCF81E0809338
S1130650EF078093F1071092EE070895F7DFCFDEDE
S113066060910C0170910D0181E0E5DE88EB9BE067
S1130670A8DE4DDF84EF91E0A2D4FBCFAF92BF920E
S1130680CF92DF92EF92FF920F93CF93A12CB12CD4
S1130690C12CD12CE12CF12C082F20E030E045E5D1
S11306A050E060E171E080E293E0D9D120E030E0F5
S11306B045E550E068E171E08EE293E0D0D1CF915E
S11306C00F91FF90EF90DF90CF90BF90AF9008957F
S11306D08FEF81B912B884B915B890EF97B99FE03C
S11306E098B98AB91BB881E0C9DFB6D280E090E03E
S11306F0089531E1FC013083319722E22083FC012B
S11307003297A3E3A083FC0133976083FC01349701
S11307107083FC0135971082FC01369760E8608392
S1130720FC0137971082FC01389762E06083FC017A
S1130730399763E06083FC013A9764E06083FC01CD
S11307403B9765E06083FC013C9766E06083FC01B5
S11307503D9767E06083FC013E9768E06083FC019D
S11307603F9769E06083FC01709760E16083FC015E
S113077071973083FC01729732E13083FC017397E7
S113078033E13083FC01749734E13083FC017597C5
S113079035E13083FC01769736E13083FC017797AD
S11307A037E13083FC01789738E13083FC01799795
S11307B039E13083FC017A9730E23083FC017B9786
S11307C031E23083FC017C972083FC017D9723E296
S11307D02083FC017E974083FC017F975083FC01BA
S11307E0B09726E22083FC01B19727E22083FC0125
S11307F0B29728E22083FC01B39729E22083FC010D
S1130800B49720E32083FC01B59721E320839C0166
S113081026523109822F932F0895109289008CE774
S1130820809388008BE080938100EFE6F0E0808184
S113083082608083A091A207B091A307CD91CDBF20
S1130840DD91DEBFFF91EF91DF91CF91BF91AF9129
S11308509F918F917F916F915F914F913F912F91D4
S11308601F910F91FF90EF90DF90CF90BF90AF90CA
S11308709F908F907F906F905F904F903F902F90BC
S11308801F900F900FBE0F90089581E008950F926E
S11308900FB6F8940F921F9211242F923F924F9209
S11308A05F926F927F928F929F92AF92BF92CF92FC
S11308B0DF92EF92FF920F931F932F933F934F93E7
S11308C05F936F937F938F939F93AF93BF93CF93D4
S11308D0DF93EF93FF93A091A207B091A3070DB606
S11308E00D920EB60D9286D3A091A207B091A307E4
S11308F0CD91CDBFDD91DEBFFF91EF91DF91CF911F
S1130900BF91AF919F918F917F916F915F914F9123
S11309103F912F911F910F91FF90EF90DF90CF9017
S1130920BF90AF909F908F907F906F905F904F900B
S11309303F902F901F900F900FBE0F9008950F922D
S11309400FB6F8940F921F9211242F923F924F9258
S11309505F926F927F928F929F92AF92BF92CF924B
S1130960DF92EF92FF920F931F932F933F934F9336
S11309705F936F937F938F939F93AF93BF93CF9323
S1130980DF93EF93FF93A091A207B091A3070DB655
S11309900D920EB60D928FD12DD3A091A207B091D6
S11309A0A307CD91CDBFDD91DEBFFF91EF91DF9124
S11309B0CF91BF91AF919F918F917F916F915F91F3
S11309C04F913F912F911F910F91FF90EF90DF90E6
S11309D0CF90BF90AF909F908F907F906F905F90DB
S11309E04F903F902F901F900F900FBE0F9008953F
S11309F0A6DF1895CF93DF93EC01E091A207F09165
S1130A00A3079383828380919A0790919B07C817C9
S1130A10D90760F46091A2077091A30780919E07A3
S1130A2090919F076E5F7F4FAFDB16C06091A20766
S1130A307091A3078091A0079091A1076E5F7F4FEB
S1130A40A3DB80910E0190910F01C817D90720F400
S1130A50D0930F01C0930E01DF91CF9108954F926F
S1130A605F926F927F928F929F92AF92BF92CF923A
S1130A70DF92EF92FF920F931F93CF93DF934C017A
S1130A803B015A01290181E290E01FDBEC01009750
S1130A9009F4D0C0C114D10409F0C9C0C50115DBE3
S1130AA06C01988F8F8B009719F4CE0133DBC2C091
S1130AB0A50165EA70E0C601FAD281E0A81AB1087E
S1130AC08F89988DA80EB91E48E050E0B301CE017D
S1130AD04996F4D218A2102F043008F013E01E8BAC
S1130AE06E01E2E0CE0ED11CC60123DBCE010C96D2
S1130AF020DBD987C88784E090E0811B91099D871A
S1130B008C87DB8BCA8BA201B401C501F2DD99830A
S1130B108883E114F10419F0F701D183C0830FB67F
S1130B20F8940F9280919C078F5F80939C0780912B
S1130B30A2079091A307892BB9F5D093A307C0937B
S1130B40A20780919C07813009F03DC0E12CF12C73
S1130B50C701880F991F880F991F880F991F8E0D41
S1130B609F1D8A55984FD7DAFFEFEF1AFF0A84E0EA
S1130B70E816F10469F78AEC97E0CDDA83ED97E0A3
S1130B80CADA8CED97E0C7DA85EE97E0C4DA8AEC2E
S1130B9097E09093A1078093A00783ED97E090934B
S1130BA09F0780939E070FC08091980781110BC007
S1130BB0E091A207F091A3078689081720F0D0934B
S1130BC0A307C093A2078E899091A407981710F4E5
S1130BD08093A4079091A5079F5F9093A507909198
S1130BE09907981710F48093990790E09C01220FBD
S1130BF0331F220F331F220F331F820F931FB6019F
S1130C008A55984F9ADA0F900FBE809198078823DF
S1130C1051F0E091A207F091A3078689801728F488
S1130C2036DE81E008C081E006C081E004C0D88ED1
S1130C30CF8A3ECF8FEFDF91CF911F910F91FF901D
S1130C40EF90DF90CF90BF90AF909F908F907F9068
S1130C506F905F904F900895AF92BF92CF92DF92C2
S1130C60EF92FF920F93A12CB12CC12CD12CE12C2B
S1130C70F12C00E020E030E045E550E060EB71E06D
S1130C8085EA97E0ECDE813041F4F894809398078C
S1130C9010929B0710929A07C0DD0F91FF90EF907E
S1130CA0DF90CF90BF90AF900895809197078F5FAA
S1130CB08093970708950F931F93CF93DF938091A9
S1130CC097078111AFC080919A0790919B07019675
S1130CD090939B0780939A0780919A0790919B0722
S1130CE0892B99F58091A0079091A10720919E07E7
S1130CF030919F073093A1072093A00790939F07FB
S1130D0080939E07809194078F5F80939407E0916E
S1130D10A007F091A1078081811107C08FEF9FEF99
S1130D2090930F0180930E0110C0E091A007F09101
S1130D30A1070580F681E02D0680F781E02D8281F0
S1130D40938190930F0180930E0120919A07309123
S1130D509B0780910E0190910F012817390708F421
S1130D6066C0E091A007F091A1078081882399F0E3
S1130D70E091A007F091A1070580F681E02DC681DE
S1130D80D7818A819B8120919A0730919B072817EC
S1130D903907F8F419C08FEF9FEF90930F018093F8
S1130DA00E0145C0E091A007F091A1070580F681EE
S1130DB0E02DC681D7818A819B8120919A07309149
S1130DC09B072817390728F490930F0180930E018D
S1130DD02EC08E010E5F1F4FC80111DA8C899D89C8
S1130DE0892B19F0CE010C960ADA8E899091990715
S1130DF0981710F48093990790E09C01220F331FF9
S1130E00220F331F220F331F820F931FB8018A55FD
S1130E10984F93D9E091A007F091A10780818111A7
S1130E20C1CFB9CF809196078F5F80939607DF91EA
S1130E30CF911F910F910895AF92BF92CF92DF92FD
S1130E40EF92FF920F931F93CF93DF930FB6F89413
S1130E500F9280919707815080939707809197070D
S1130E60811163C080919C0781112DC061C0D6019E
S1130E70ED91FC91C681D781CE010C96C0D98E012B
S1130E800E5F1F4FC801BBD98E899091990798179F
S1130E9010F48093990790E09C01220F331F220FD6
S1130EA0331F220F331F820F931FB8018A55984FA7
S1130EB044D9E091A207F091A3079E8986899817E7
S1130EC088F0BA2C0FC0B12C0F2EFCEDEF2EF7E0FA
S1130ED0FF2EF02D0F2EF1EECF2EF7E0DF2EF02DAA
S1130EE0AA24A394F70180818111C1CF8091960730
S1130EF0882379F080919607882391F0DCDE809135
S1130F009607815080939607809196078111F6CFBA
S1130F1007C0F1E0BF1621F080919507813039F4C4
S1130F2010929507B4DC81E003C080E001C080E04A
S1130F300F900FBEDF91CF911F910F91FF90EF9013
S1130F40DF90CF90BF90AF9008950F2EF5EEEF2E67
S1130F50F7E0FF2EF02D0F2EFAEECF2EF7E0DF2E66
S1130F60F02DC6EAD7E080919D07882319F19DDE14
S1130F70D7011C9161DF1123E9F00FB6F8940F92A9
S1130F80D601ED91FC9106811781C801029637D9EB
S1130F9080919C07815080939C0780919D0781508C
S1130FA080939D070F900FBEF8018789908DB2D86A
S1130FB0C801B0D888818230B0F269DCD4CFCF9335
S1130FC0DF93EC01009791F070DE80919A07909185
S1130FD09B07C80FD91F8091A2079091A30702967F
S1130FE00ED9CE0107DD28DF811101C050DCDF916D
S1130FF0CF91089580919707811113C0809199072B
S113100090E0FC01EE0FFF1FEE0FFF1FEE0FFF1F1E
S11310108E0F9F1FFC01EA55F84F8081882329F029
S11310201BC081E0809395070895809199078150B2
S1131030809399078091990790E0FC01EE0FFF1FC0
S1131040EE0FFF1FEE0FFF1F8E0F9F1FFC01EA55CF
S1131050F84F8081882349F3E0919907F0E0CF01AC
S1131060880F991F880F991F880F991FE80FF91F80
S1131070EA55F84FA181B28112960D90BC91A02D32
S1131080B283A183CF010396A817B90731F412964E
S11310908D919C911397928381830180F281E02D3D
S11310A0868197819093A3078093A2070895DC011A
S11310B001C06D9341505040E0F70895FB01DC01FD
S11310C04150504048F001900D920020C9F701C0F2
S11110D01D9241505040E0F70895F894FFCF70
S11310DE200130013E014B015A0177019601FFFFB9
S11310EE4B65795461736B004C43445461736B00CC
S11310FE53657474696E672041432054656D7000A6
S113110E4368616E67696E6720636F6465004C6F38
S113111E636B696E6720446F6F7200556E6C6F63FC
S113112E6B696E6720646F6F720053657420414360
S113113E2074656D703A204420204E6578742050DA
S113114E6167653A204300446F6F72204C6F636B86
S113115E3A2041202020204368616E676520436F4A
S113116E64653A204200446F6F7220556E6C6F6353
S113117E6B657220202050726F746F7479706500E5
S109118E49444C45000039
S9030000FC
