S01700004763634170706C69636174696F6E312E737265635B
S113000045C0000061C000005FC000005DC000008A
S11300105BC0000059C0000057C0000055C000007C
S113002053C0000051C000004FC000004DC000008C
S11300304BC000000C94430947C0000045C00000B9
S113004043C0000041C000003FC000003DC00000AC
S11300503BC0000039C0000037C0000035C00000BC
S113006033C0000031C000002FC000002DC00000CC
S11300702BC0000029C0000027C0000025C00000DC
S113008023C0000021C000001FC0000011241FBEB7
S1130090CFEFD0E4DEBFCDBF12E0A0E0B1E0EAE4F0
S11300A0FFE100E00BBF02C007900D92A839B10731
S11300B0D9F728E0A8E9B2E001C01D92A33EB20737
S11300C0E1F74FD70C94A30F9BCFCF93DF93EC01B1
S11300D00E94AD0A40919802509199029E01240F0A
S11300E0351F2C3D85E0380758F44217530758F460
S11300F0EA01C656DD4F309399022093980205C059
S1130100C0E0D0E002C0C0E0D0E00E94770B8C2FAA
S11301109D2FDF91CF9108950895FC01039692835A
S113012081832FEF3FEF34832383968385839087E6
S1130130878310820895FC01118610860895CF9359
S1130140DF93FC01DB0121813281E9018A819B81FA
S113015013969C938E9312978181928115969C930A
S11301608E9314978A819B81EC017D836C83E901D2
S11301707B836A83728361831996FC93EE93189749
S113018080818F5F8083DF91CF910895CF93DF9338
S1130190EB01488159814F3F2FEF520731F4DC01C5
S11301A01796ED91FC91189717C0FC013396DC016A
S11301B015962D913C911697D9012D913C9142179A
S11301C0530750F00280F381E02DA281B3812D9179
S11301D03C9142175307B0F7A281B381BB83AA8332
S11301E01596DC93CE931497FD83EC83D383C2835B
S11301F099878887FC0120812F5F2083DF91CF912D
S11302000895FC01A281B3818481958115969C9304
S11302108E931497A481B5818281938113969C93C4
S11302208E931297A085B18511968D919C9112970A
S11302308E179F0731F48481958112969C938E9337
S11302401197118610868C9181508C9308954423C4
S113025051F041E050E09A0102C0220F331F6A9529
S1130260E2F7822B089521E030E0A90102C0440F97
S1130270551F6A95E2F7BA0160958623089521E037
S113028030E0A90102C0440F551F6A95E2F78423A8
S1130290089540E064E08FEFDADF88B9000086B1AA
S11302A060E08095ECDF81116EC086B161E08095DD
S11302B0E6DF81116AC086B162E08095E0DF8111DA
S11302C066C086B163E08095DADF811162C040E0E8
S11302D065E08FEFBCDF88B9000086B160E08095EF
S11302E0CEDF811158C086B161E08095C8DF8111ED
S11302F054C086B162E08095C2DF811150C086B1DE
S113030063E08095BCDF81114CC040E066E08FEF74
S11303109EDF88B9000086B160E08095B0DF81116E
S113032042C086B161E08095AADF81113EC086B1EA
S113033062E08095A4DF81113AC086B163E08095C4
S11303409EDF811136C040E067E08FEF80DF88B91F
S1130350000086B160E0809592DF81112CC086B1E7
S113036061E080958CDF811128C086B162E08095C0
S113037086DF811124C086B163E0809580DF882305
S113038001F184E4089581E3089584E3089587E303
S113039008958AE2089582E3089585E3089588E341
S11303A0089580E3089583E3089586E3089589E337
S11303B0089583E2089581E4089582E4089583E42E
S11303C0089580E00895181619065CF00895000059
S11303D021503109E1F74F5F5F4F4817590729F45E
S11303E0089540E050E067E073E09B01F0CF169879
S11303F085B9179A0000179882E090E0E4CF81E075
S1130400F6CF84E690E0DFDF88E3F1DF86E0EFDF1C
S11304108FE0EDDF81E0EBDF8AE090E0D4CF169A45
S113042085B9179A0000179881E090E0CCCF81310C
S113043010F48158DCCF8155DACF1F93CF93DF932B
S1130440182FEB01DCDF9881992351F0812F182FAD
S11304501F5FEDDF8991E3DF812F98819111F7CF41
S1130460DF91CF911F910895813081F0E1ECF0E0AC
S1130470808188618083E2ECF0E080818660808303
S113048083E38093C4001092C5000895E9ECF0E082
S1130490808188618083EAECF0E0808186608083DB
S11304A083E38093CC001092CD000895813021F035
S11304B08091C000807208958091C8008072089570
S11304C0813021F08091C000807408958091C8002B
S11304D080740895813021F08091C000807808955F
S11304E08091C80080780895613041F0E0ECF0E03C
S11304F0908195FFFDCF8093C6000895E8ECF0E06D
S1130500908195FFFDCF8093CE000895813041F016
S1130510E0ECF0E080818823ECF78091C600089538
S1130520E8ECF0E080818823ECF78091CE00089518
S1130530DF92EF92FF920F931F93CF93DF9300D03C
S113054000D000D0CDB7DEB786E0E7E4F1E0DE010D
S1130550119601900D928A95E1F7609135017091A1
S1130560360181E06ADF8E010F5F1F4F7E0186E056
S1130570E80EF11C8EDED82E8CE291E024DFDD2023
S1130580C9F3F801D1928F01BE016F5F7F4F81E003
S113059054DF0E151F0571F799818091210198137D
S11305A014C09A818091220198130FC09B8180917D
S11305B0230198130AC09C8180912401981305C0DB
S11305C09D8180912501981741F0609131017091CE
S11305D0320181E032DF80E001C081E026960FB66F
S11305E0F894DEBF0FBECDBFDF91CF911F910F9165
S11305F0FF90EF90DF900895BF92CF92DF92EF9239
S1130600FF920F931F93CF93DF9300D000D000D0BD
S1130610CDB7DEB786E0E7E4F1E0DE0111960190A4
S11306200D928A95E1F7609133017091340181E074
S113063004DF8E010F5F1F4F0F2EF1E2EF2EF1E06A
S1130640FF2EF02D6E0186E0C80ED11C22DEB82EDE
S11306508CE291E0B8DEBB20C9F3F801B1928F01BE
S1130660F701B1927F01F3E2BF1629F0BE016F5F7B
S11306707F4F81E0E2DE0C151D0541F726960FB68B
S1130680F894DEBF0FBECDBFDF91CF911F910F91C4
S1130690FF90EF90DF90CF90BF9008958091E20893
S11306A0823069F128F4882341F0813089F524C02F
S11306B0833041F1843061F528C0EBDD813421F4CD
S11306C081E08093E2082FC0E4DD823421F482E0EB
S11306D08093E2082CC0DDDD833421F483E0809331
S11306E0E20829C0D6DD843421F484E08093E20852
S11306F026C01092E20808951092E208089510921C
S1130700E20808951092E20808951092E20808950C
S1130710823069F018F48130A9F405C0833059F0AF
S1130720843081F40CC081E48093DC08089582E471
S11307308093DC08089583E48093DC08089584E4BE
S11307408093DC0808958091D308813009F44FC068
S113075038F0823009F468C0833009F07FC073C078
S11307608091D508813049F460912D0170912E015A
S113077064DE8CED95E027DE37C0823051F4609161
S11307802B0170912C0181E058DE8CED95E01BDE8D
S11307902BC0833051F46091290170912A0181E0CA
S11307A04CDE8CED95E00FDE1FC0843051F4609177
S11307B027017091280181E040DE8CED95E003DE95
S11307C013C08091E008813031F46091410170914F
S11307D0420133DE09C0823009F051C060913F010B
S11307E07091400181E029DE1092D50837C0A0DE67
S11307F08823B9F081E08093E1088091DA088823A6
S113080039F060913B0170913C0181E016DE06C035
S113081060913D0170913E0181E00FDE8CED95E029
S1130820D2DD1092DC081AC06091390170913A014E
S113083081E003DE8CED95E0C6DD7ADE8111DCDE3D
S11308401092DC080BC08091E008813011F482E042
S113085001C081E08093E0081092DC088091D30805
S11308608230C1F130F4882351F0813009F043C063
S11308702EC0833091F1843009F03DC031C08091A5
S1130880DC088823C1F1813421F481E08093D3080A
S11308900895823421F482E08093D3080895833448
S11308A021F483E08093D3080895843421F5609182
S11308B037017091380181E0C0DD8CED95E083DD76
S11308C084E08093D30881E08093D908089510923E
S11308D0D30808951092D30808951092D308089568
S11308E08091D908811107C01092D3081092DC08B6
S11308F081E08093D20808958091D708843009F468
S113090099C050F4813051F198F0823009F44AC012
S1130910833009F042C16AC0863009F4D3C008F4B8
S1130920ADC0873009F4F2C0883009F036C112C175
S11309308091E108882309F44BC18091DA08882367
S113094031F081E08093D7088093D60826C188E0EF
S11309508093D70882E08093D6081FC12091D008E5
S11309603091D1088091DD089091DE08281739076D
S113097069F41092D7081092E10881E09091D608AA
S1130980913009F480E08093DA0807C18091D60899
S1130990813021F482E08093D7082DC188E08093D0
S11309A0D7087DC12091D0083091D1088091DD080D
S11309B09091DE082817390769F41092D70810922D
S11309C0E10881E09091D608913009F480E08093A9
S11309D0DA08E3C08091D608813021F483E0809363
S11309E0D70817C181E08093D708F7C02091D008B9
S11309F03091D1088091DD089091DE0828173907DD
S1130A0069F41092D7081092E10881E09091D60819
S1130A10913009F480E08093DA08BFC08091D60851
S1130A20813021F484E08093D70801C182E080936F
S1130A30D708E1C02091D0083091D1088091DD0819
S1130A409091DE082817390769F41092D70810929C
S1130A50E10881E09091D608913009F480E0809318
S1130A60DA089BC08091D608813021F485E0809318
S1130A70D708EBC083E08093D708CBC02091D0087F
S1130A803091D1088091DD089091DE08281739074C
S1130A9069F41092D7081092E10881E09091D60889
S1130AA0913009F480E08093DA0877C08091D60809
S1130AB0813021F486E08093D708D5C084E0809308
S1130AC0D708B5C02091D0083091D1088091DD08B5
S1130AD09091DE082817390769F41092D70810920C
S1130AE0E10881E09091D608913009F480E0809388
S1130AF0DA0853C08091D608813021F487E08093CE
S1130B00D708BFC085E08093D7089FC02091D00844
S1130B103091D1088091DD089091DE0828173907BB
S1130B2069F41092D7081092E10881E09091D608F8
S1130B30913009F480E08093DA082FC08091D608C0
S1130B40813021F488E08093D708A9C086E080939F
S1130B50D70889C02091D0083091D1088091DD0850
S1130B609091DE082817390769F41092D70810927B
S1130B70E10881E09091D608913009F480E08093F7
S1130B80DA080BC08091D608813019F48093D70815
S1130B9024C087E08093D70874C08091D70884303C
S1130BA009F445C048F48130C1F090F0823019F165
S1130BB0833009F081C02DC0863009F454C008F494
S1130BC044C0873009F45DC0883009F075C067C03F
S1130BD01092D1081092D008089584E08093DF0821
S1130BE082B98091D0089091D10803969093D1084E
S1130BF08093D00808958CE08093DF0882B98091B7
S1130C00D0089091D10803969093D1088093D0088E
S1130C10089588E08093DF0882B98091D00890918C
S1130C20D10803969093D1088093D008089588E161
S1130C308093DF0882B98091D0089091D1080396FF
S1130C409093D1088093D008089580E18093DF08C1
S1130C5082B98091D0089091D10803969093D108DD
S1130C608093D008089580E38093DF0882B980914F
S1130C70D0089091D10803969093D1088093D0081E
S1130C80089580E28093DF0882B98091D008909122
S1130C90D10803969093D1088093D008089584E2F4
S1130CA08093DF0882B98091D0089091D10803968F
S1130CB09093D1088093D00808958091DB08813007
S1130CC071F028F0823019F1833049F524C0809105
S1130CD0D908882371F181E08093DB082DC0009945
S1130CE004C082E08093DB0844C0019904C083E01F
S1130CF08093DB0844C0CDDA833289F460912F01FC
S1130D007091300181E099DB1092DB0812C081E020
S1130D108093DB0811C081E08093DB080DC08091D3
S1130D20DB08813049F028F0823019F1833061F515
S1130D3026C01092D9080895809126011F928F939E
S1130D408DE491E09F938F931F9281E28F9380E0D3
S1130D5091E09F938F9323D660E071E081E06DDB97
S1130D608DB79EB708960FB6F8949EBF0FBE8DBF81
S1130D700895809126018F5F8093260108958091C4
S1130D80260181508093260108958091D8088130EE
S1130D9021F460E080912601A7DB8091D8088823A4
S1130DA019F08130C1F40FC080E080DB882341F06A
S1130DB08091D208882321F081E08093D808089597
S1130DC01092D808089580E07BDB8823E1F3109229
S1130DD0D8081092D20808951092D8081092D20818
S1130DE080E042DBD2DF8CE291E04AD5FBCF8091F8
S1130DF0D408882319F0813079F40BC080E06ADBD1
S1130E00882321F081E08093D40808C01092D4088C
S1130E1008951092D4080895813021F480E076DB9F
S1130E208093D50808951092D4081092D50880E0D4
S1130E301BDBDDDF84E690E023D5FBCF1092E208D4
S1130E401092DC080895FADF29DC84E690E018D5D6
S1130E50FBCF1092D7081092DF0880E09CE09093BB
S1130E60DE088093DD081092D6081092D108109203
S1130E70D0080895EEDF40DD83E090E001D5FBCF9C
S1130E8081E08093DA088093E0081092D3080895F3
S1130E90F7DFB7DA609143017091440181E0CDDA64
S1130EA088EB9BE090DA4FDC84EF91E0E9D4FBCF50
S1130EB01092DB081092D9080895FADFFEDE8CE266
S1130EC091E0DED4FBCFAF92BF92CF92DF92EF924C
S1130ED0FF920F93CF93A12CB12CC12CD12CE12CD8
S1130EE0F12C082F20E030E045E550E060E571E0AA
S1130EF083E297E001D220E030E045E550E068E588
S1130F0071E088E497E0F8D120E030E045E550E076
S1130F1060E671E08AE397E0EFD120E030E045E558
S1130F2050E06AE671E08DE597E0E6D120E030E03C
S1130F3045E550E063E771E08CEE96E0DDD120E01A
S1130F4030E045E550E06CE771E083E197E0D4D10F
S1130F50CF910F91FF90EF90DF90CF90BF90AF9023
S1130F6008958CEF81B983E082B98FEF84B915B805
S1130F7090EF97B99FE098B98AB91BB881E0A3DFD5
S1130F80C3D280E090E0089531E1FC0130833197D1
S1130F9022E22083FC013297A3E3A083FC01339770
S1130FA06083FC0134977083FC0135971082FC0147
S1130FB0369760E86083FC0137971082FC0138970C
S1130FC062E06083FC01399763E06083FC013A9737
S1130FD064E06083FC013B9765E06083FC013C971F
S1130FE066E06083FC013D9767E06083FC013E9707
S1130FF068E06083FC013F9769E06083FC017097BF
S113100060E16083FC0171973083FC01729732E1E7
S11310103083FC01739733E13083FC01749734E12E
S11310203083FC01759735E13083FC01769736E116
S11310303083FC01779737E13083FC01789738E1FE
S11310403083FC01799739E13083FC017A9730E2EF
S11310503083FC017B9731E23083FC017C97208351
S1131060FC017D9723E22083FC017E974083FC01F1
S11310707F975083FC01B09726E22083FC01B1974F
S113108027E22083FC01B29728E22083FC01B39776
S113109029E22083FC01B49720E32083FC01B59767
S11310A021E320839C0126523109822F932F089536
S11310B0109289008CE7809388008BE080938100F4
S11310C0EFE6F0E0808182608083A0918408B09193
S11310D08508CD91CDBFDD91DEBFFF91EF91DF910A
S11310E0CF91BF91AF919F918F917F916F915F91BC
S11310F04F913F912F911F910F91FF90EF90DF90AF
S1131100CF90BF90AF909F908F907F906F905F90A3
S11311104F903F902F901F900F900FBE0F90089507
S113112081E008950F920FB6F8940F921F92112444
S11311302F923F924F925F926F927F928F929F92E3
S1131140AF92BF92CF92DF92EF92FF920F931F93D1
S11311502F933F934F935F936F937F938F939F93BB
S1131160AF93BF93CF93DF93EF93FF93A091840842
S1131170B09185080DB60D920EB60D929DD3A09137
S11311808408B0918508CD91CDBFDD91DEBFFF917C
S1131190EF91DF91CF91BF91AF919F918F917F910B
S11311A06F915F914F913F912F911F910F91FF90FC
S11311B0EF90DF90CF90BF90AF909F908F907F90F3
S11311C06F905F904F903F902F901F900F900FBEA5
S11311D00F9008950F920FB6F8940F921F92112456
S11311E02F923F924F925F926F927F928F929F9233
S11311F0AF92BF92CF92DF92EF92FF920F931F9321
S11312002F933F934F935F936F937F938F939F930A
S1131210AF93BF93CF93DF93EF93FF93A091840891
S1131220B09185080DB60D920EB60D929CD144D3A3
S1131230A0918408B0918508CD91CDBFDD91DEBF2A
S1131240FF91EF91DF91CF91BF91AF919F918F91DA
S11312507F916F915F914F913F912F911F910F91CA
S1131260FF90EF90DF90CF90BF90AF909F908F90C2
S11312707F906F905F904F903F902F901F900F90B2
S11312800FBE0F900895A6DF1895CF93DF93EC015E
S1131290E0918408F09185089383828380917C088F
S11312A090917D08C817D90768F4609184087091FB
S11312B0850880918008909181086E5F7F4F0E941D
S11312C0C60017C0609184087091850880918208D7
S11312D0909183086E5F7F4F0E94C6008091450104
S11312E090914601C817D90720F4D0934601C093C2
S11312F04501DF91CF9108954F925F926F927F9253
S11313008F929F92AF92BF92CF92DF92EF92FF9211
S11313100F931F93CF93DF934C013B015A01290193
S113132081E290E00E946500EC01009709F4DAC0C4
S1131330C114D10409F0D3C0C5010E9465006C0139
S1131340988F8F8B009721F4CE010E948C00CAC025
S1131350A50165EA70E0C6010CD381E0A81AB108C2
S11313608F89988DA80EB91E48E050E0B301CE01D4
S1131370499606D318A2102F043008F013E01E8BF0
S11313806E01E2E0CE0ED11CC6010E949B00CE018C
S11313900C960E949B00D987C88784E090E0811B4B
S11313A091099D878C87DB8BCA8BA201B401C5018F
S11313B0EBDD99838883E114F10419F0F701D183FB
S11313C0C0830FB6F8940F9280917E088F5F80934C
S11313D07E088091840890918508892BE1F5D0934B
S11313E08508C093840880917E08813009F042C04A
S11313F0E12CF12CC701880F991F880F991F880FC2
S1131400991F8E0D9F1D8857974F0E948D00FFEFE7
S1131410EF1AFF0A84E0E816F10461F78CEA98E019
S11314200E948D0085EB98E00E948D008EEB98E081
S11314300E948D0087EC98E00E948D008CEA98E071
S1131440909383088093820885EB98E090938108B9
S1131450809380080FC080917A0881110BC0E091BD
S11314608408F09185088689081720F0D0938508B0
S1131470C09384088E8990918608981710F48093FD
S11314808608909187089F5F9093870890917B08C6
S1131490981710F480937B0890E09C01220F331F6F
S11314A0220F331F220F331F820F931FB601885759
S11314B0974F0E949F000F900FBE80917A08882357
S11314C051F0E0918408F09185088689801728F40A
S11314D029DE81E008C081E006C081E004C0D88E26
S11314E0CF8A36CF8FEFDF91CF911F910F91FF906D
S11314F0EF90DF90CF90BF90AF909F908F907F90B0
S11315006F905F904F900895AF92BF92CF92DF9209
S1131510EF92FF920F93A12CB12CC12CD12CE12C72
S1131520F12C00E020E030E045E550E062E972E0B3
S113153083E09CE0E1DE813041F4F89480937A0802
S113154010927D0810927C08B3DD0F91FF90EF900C
S1131550DF90CF90BF90AF900895809179088F5F0E
S11315608093790808950F931F93CF93DF9380910D
S113157079088111B2C080917C0890917D08019610
S113158090937D0880937C0880917C0890917D08DD
S1131590892B99F580918208909183082091800885
S11315A030918108309383082093820890938108B6
S11315B080938008809176088F5F80937608E0910D
S11315C08208F09183088081811107C08FEF9FEF1B
S11315D0909346018093450110C0E0918208F091F8
S11315E083080580F681E02D0680F781E02D828155
S11315F09381909346018093450120917C0830911A
S11316007D0880914501909146012817390708F417
S113161069C0E0918208F09183088081882399F061
S1131620E0918208F09183080580F681E02DC6815F
S1131630D7818A819B8120917C0830917D0828176D
S11316403907F8F419C08FEF9FEF90934601809308
S1131650450148C0E0918208F09183080580F68135
S1131660E02DC681D7818A819B8120917C083091AD
S11316707D082817390728F4909346018093450183
S113168031C08E010E5F1F4FC8010E9401018C8979
S11316909D89892B21F0CE010C960E9401018E892F
S11316A090917B08981710F480937B0890E09C013C
S11316B0220F331F220F331F220F331F820F931F5A
S11316C0B8018857974F0E949F00E0918208F091DB
S11316D0830880818111BECFB6CF809178088F5F57
S11316E080937808DF91CF911F910F910895AF9265
S11316F0BF92CF92DF92EF92FF920F931F93CF93FB
S1131700DF930FB6F8940F928091790881508093FB
S1131710790880917908811166C080917E088111D1
S113172030C064C0D601ED91FC91C681D781CE0151
S11317300C960E9401018E010E5F1F4FC8010E948A
S113174001018E8990917B08981710F480937B088F
S113175090E09C01220F331F220F331F220F331FEF
S1131760820F931FB8018857974F0E949F00E09102
S11317708408F09185089E898689981788F0BA2C88
S11317800FC0B12C0F2EFEEBEF2EF8E0FF2EF02D44
S11317900F2EF3ECCF2EF8E0DF2EF02DAA24A39425
S11317A0F70180818111BECF80917808882379F078
S11317B080917808882391F0D6DE80917808815052
S11317C080937808809178088111F6CF07C0F1E002
S11317D0BF1621F080917708813039F41092770890
S11317E0A1DC81E003C080E001C080E00F900FBE67
S11317F0DF91CF911F910F91FF90EF90DF90CF90E9
S1131800BF90AF9008950F2EF7ECEF2EF8E0FF2E67
S1131810F02D0F2EFCECCF2EF8E0DF2EF02DC8E8D3
S1131820D8E080917F08882331F197DED7011C919D
S11318305EDF112301F10FB6F8940F92D601ED91FA
S1131840FC9106811781C80102960E9401018091D2
S11318507E08815080937E0880917F088150809318
S11318607F080F900FBEF8018789908D0E948C002D
S1131870C8010E948C008881823098F253DCD1CF59
S1131880CF93DF93EC01009799F067DE80917C0899
S113189090917D08C80FD91F809184089091850884
S11318A002960E940101CE01F0DC21DF811101C00A
S11318B039DCDF91CF91089580917908811113C0AB
S11318C080917B0890E0FC01EE0FFF1FEE0FFF1FDD
S11318D0EE0FFF1F8E0F9F1FFC01E857F74F80810B
S11318E0882329F01BC081E08093770808958091B4
S11318F07B08815080937B0880917B0890E0FC01F9
S1131900EE0FFF1FEE0FFF1FEE0FFF1F8E0F9F1F27
S1131910FC01E857F74F8081882349F3E0917B0865
S1131920F0E0CF01880F991F880F991F880F991F26
S1131930E80FF91FE857F74FA181B28112960D9075
S1131940BC91A02DB283A183CF010396A817B90738
S113195031F412968D919C91139792838183018027
S1131960F281E02D86819781909385088093840885
S11319700895DC0101C06D9341505040E0F7089593
S1131980FB01DC014150504048F001900D920020D1
S1131990C9F701C01D9241505040E0F708950F93DC
S11319A01F93CF93DF93CDB7DEB72E970FB6F8947E
S11319B0DEBF0FBECDBF0D891E898F89988D26E0AD
S11319C02C831A83098397FF02C080E090E8019773
S11319D09E838D83CE014B96AC01698D7A8DCE01A9
S11319E0019619D04D815E8157FD0AC02F8138853B
S11319F0421753070CF49A01F801E20FF31F108207
S1131A002E960FB6F894DEBF0FBECDBFDF91CF91F7
S1131A101F910F9108952F923F924F925F926F9270
S1131A207F928F929F92AF92BF92CF92DF92EF926A
S1131A30FF920F931F93CF93DF93CDB7DEB72C970D
S1131A400FB6F894DEBF0FBECDBF7C016B018A01D7
S1131A50FC0117821682838181FFB9C18824839493
S1131A60912C8C0E9D1EF7019381F60193FD8591B7
S1131A7093FF81916F01882309F4A5C1853239F45C
S1131A8093FD859193FF81916F01853221F4B70114
S1131A9090E0CFD1E8CF512C312C20E02032A8F4B3
S1131AA08B3261F028F4803251F0833271F40BC030
S1131AB08D3239F0803349F4216028C022602460DB
S1131AC025C0286023C0206121C027FD27C0382FEE
S1131AD030533A3078F426FF06C0FAE05F9E300DAA
S1131AE01124532E13C08AE0389E300D1124332E56
S1131AF020620CC08E3221F426FD65C1206406C02C
S1131B008C3611F4206802C0883641F4F60193FD46
S1131B10859193FF81916F018111C0CF982F9554C6
S1131B20933018F09052933028F40C5F1F4FFFE36A
S1131B30F9830DC0833631F0833771F0833509F0B2
S1131B405AC022C0F801808189830E5F1F4F44244C
S1131B504394512C540114C03801F2E06F0E711CEF
S1131B60F801A080B18026FF03C0652D70E002C09B
S1131B706FEF7FEFC5012C8751D12C0183012C8598
S1131B806FE7262E222217C03801F2E06F0E711C77
S1131B90F801A080B18026FF03C0652D70E002C06B
S1131BA06FEF7FEFC5012C872ED12C012C8550E8D7
S1131BB0252E222A830123FC1AC005C0B70180E226
S1131BC090E037D13A94832D90E048165906B0F34B
S1131BD00EC0F50127FC859127FE81915F01B701B5
S1131BE090E027D131103A94F1E04F1A5108411492
S1131BF0510479F7E5C0843611F0893639F5F801D6
S1131C0027FF07C060817181828193810C5F1F4F20
S1131C1008C060817181882777FD8095982F0E5FB9
S1131C201F4F4FE6B42EB22297FF09C090958095BE
S1131C30709561957F4F8F4F9F4FF0E8BF2A2AE040
S1131C4030E0A40122D1A82EA81842C0853731F46F
S1131C503FEEB32EB2222AE030E024C099EFB92E31
S1131C60B2228F36B9F020F4883509F0ACC00DC02B
S1131C70803721F0883709F0A6C002C020E1B22ADB
S1131C80B4FE0BC084E0B82A08C024FF09C0E6E013
S1131C90BE2A06C028E030E005C020E130E002C0E2
S1131CA020E132E0F801B7FE07C0608171818281D2
S1131CB093810C5F1F4F06C06081718180E090E0CA
S1131CC00E5F1F4FA401E1D0A82EA818FFE7BF2282
S1131CD0B6FE0BC02B2D2E7FA51450F4B4FE0AC003
S1131CE0B2FC08C02B2D2E7E05C07A2C2B2D03C0F0
S1131CF07A2C01C0752C24FF0DC0FE01EA0DF11DE4
S1131D008081803311F4297E09C022FF06C07394B8
S1131D10739404C0822F867809F0739423FD13C052
S1131D2020FF0EC05A2C731458F4530C5718732CFC
S1131D3007C0B70180E290E02C877BD073942C8598
S1131D407314B8F304C0731410F4371801C0312CA1
S1131D5024FF11C0B70180E390E02C876AD02C8562
S1131D6022FF1CC021FF03C088E590E002C088E781
S1131D7090E0B7010CC0822F867881F021FD02C06B
S1131D8080E201C08BE227FD8DE2B70190E051D0E3
S1131D9005C0B70180E390E04CD05A94A514C8F371
S1131DA0AA94F401EA0DF11DB701808190E041D0BD
S1131DB0A110F6CF05C0B70180E290E03AD03A9482
S1131DC03110F9CF50CEF7012681378102C02FEFB1
S1131DD03FEFC9012C960FB6F894DEBF0FBECDBFFE
S1131DE0DF91CF911F910F91FF90EF90DF90CF90F3
S1131DF0BF90AF909F908F907F906F905F904F9027
S1131E003F902F900895FC0105906150704001109F
S1131E10D8F7809590958E0F9F1F0895FC0161500F
S1131E20704001900110D8F7809590958E0F9F1FF8
S1131E3008950F931F93CF93DF938C01EB018B8154
S1131E4081FD03C00FEF1FEF1AC082FF0DC02E816A
S1131E503F818C819D812817390764F4E881F981D9
S1131E600193F983E88306C0E885F985802F0995F5
S1131E70892B41F78E819F8101969F838E83C801B0
S1131E80DF91CF911F910F910895FA01AA2728306D
S1131E9051F1203181F1E8946F936E7F6E5F7F4F33
S1131EA08F4F9F4FAF4FB1E03ED0B4E03CD0670FAF
S1131EB0781F891F9A1FA11D680F791F8A1F911D02
S1131EC0A11D6A0F711D811D911DA11D20D009F452
S1131ED068943F912AE0269F11243019305D319394
S1131EE0DEF6CF010895462F4770405D4193B3E07D
S1131EF00FD0C9F7F6CF462F4F70405D4A3318F024
S1131F00495D31FD4052419302D0A9F7EACFB4E0D4
S1131F10A6959795879577956795BA95C9F700978C
S1131F206105710508959B01AC010A2E069457952D
S1131F30479537952795BA95C9F7620F731F841F84
S10D1F40951FA01D0895F894FFCF2B
S1131F4A2020000000000000000000000000000043
S1131F5A0000000000000000000000000000000073
S1131F6A0031323341234884019301A101AC01B603
S1131F7A01C801D601EE010202120220022D023C1E
S1131F8A0259027802FFFF20202020200025640045
S1131F9A4B65795461736B004C43445461736B0011
S1131FAA4D6F746F725461736B0054656D70546134
S1131FBA736B0053656E645461736B0052656354AA
S1131FCA61736B00486561746572206973206F667A
S1131FDA662E00486561746572206973206F6E2EDF
S1131FEA004143206973206F66662E0041432069CD
S1131FFA73206F6E2E004E65772074656D702061B4
S113200A6363657074656400496E76616C69642003
S113201A636F64652100456E746572206E6577206E
S113202A342D646967697420636F64653A00456E88
S113203A7465722063757272656E7420636F646569
S113204A3A0053657474696E672041432054656D80
S113205A70004368616E67696E6720636F64650028
S113206A4C6F636B696E6720446F6F7200556E6CB8
S113207A6F636B696E6720646F6F720053657420B7
S113208A41432074656D703A204420204E6578746B
S113209A20506167653A204300446F6F72204C6F89
S11320AA636B3A2041202020204368616E676520D3
S11320BA436F64653A204200446F6F7220556E6C18
S11320CA6F636B657220202050726F746F7479701D
S10B20DA650049444C45000077
S9030000FC
